:100000004DC6000083C6000081C600007FC6000008
:100010007DC600007BC6000079C6000077C60000E0
:1000200075C6000073C600000C94E9250C94B62632
:100030000C946C206BC6000069C6000067C6000007
:1000400065C6000063C6000061C600005FC6000010
:100050005DC600000C94E32059C6000057C600009E
:1000600055C6000053C6000051C600004FC6000030
:100070004DC600004BC6000049C6000047C6000040
:1000800045C6000043C6000041C600003FC6000050
:100090003DC600003BC6000039C6000037C6000060
:1000A00035C6000033C6000031C600002900350007
:1000B0001E001F0020002100220000002300240059
:1000C0002500260027002D002E002B0014001A000A
:1000D000090013000500000000004B000D000F0098
:1000E00018001C0033004C002A0004001500160004
:1000F00017000A004C0000004E001000110008001C
:100100000C0012003400E1001D001B000600070077
:1001100019004A0049004D000E000B003600370060
:100120003800E500E3003900E20022522C210000F3
:1001300000000007000028432452500051005200E4
:100140004F00010001000100010001000100010059
:100150000100010001000100010001000100010097
:100160000100010001000100010001000100000088
:100170000100010001000100010001000100010077
:100180000100010001000100010001000000010068
:100190000100010001000100010001000100010057
:1001A0000100010001000100010001000100010047
:1001B0000100010001000100010001000100010037
:1001C000010001000000000001000000010001002A
:1001D000010001000100010000000000000000001B
:1001E000000000000000007C000000000000000093
:1001F00000000000000035004200430044004500BC
:10020000000001000000010000002400250026007D
:1002100000004C0001003E003F0040004100000093
:10022000AA000000A9000000210022002300000015
:10023000010001003A003B003C003D003801AC00E9
:10024000AE00AB0000001E001F00200000000100F7
:1002500001000100500901004F09000000000100E9
:100260000000010027000100010001000100010061
:100270000100010001000100010001000100010076
:100280000100010001000100010001000100010066
:10029000CD00CD00CE0001000100000001000100F2
:1002A0004B0052004E000100010001000100CF0090
:1002B000CE00D000010001000000010050015000FC
:1002C00051004F004F010100010001000100010039
:1002D0000100010001000100010001004A00490085
:1002E0004D000100010001000100D300D200D10047
:1002F00000000000010000000100010001000100F9
:1003000001000100000000000000000000000000EB
:1003100000000000000000000000000000000000DD
:1003200000000000000000000000000000000000CD
:100330000000000000002F0030002D000100000030
:1003400000000000000000000000000000000000AD
:1003500000000000260227022E00370235000100AF
:10036000000000000000000000000000000000008D
:1003700000002F02300201003100010001000100E5
:100380000100010001000000000000000000010069
:100390000100010001000100010000000000000058
:1003A000000000000000000000000000000000004D
:1003B000000000000000000000000000000000003D
:1003C000000000000000000000000000000000002D
:1003D000000000000000000000000000000000001D
:1003E000000000000000000000000000000000000D
:1003F00000000000000000000000000000000000FD
:1004000000000000000000000000000000000000EC
:1004100000000000000000000000000000000000DC
:1004200000000000000001000000000000000000CB
:100430006C65645F7461736B3A20253032580A0032
:100440004F6E6573686F743A206163746976653ABC
:100450002025640A0044454255473A206469736187
:10046000626C65642E0A0044454255473A20656E29
:1004700061626C65642E0A000A0025303136620024
:100480003A200025303258000A722F632030313272
:10049000333435363738394142434445460A003112
:1004A0003A0964656C6179282A31306D73293A20E4
:1004B00025750A323A09696E74657276616C286D29
:1004C00073293A2025750A333A096D61785F737094
:1004D0006565643A2025750A343A0974696D655F6B
:1004E000746F5F6D61783A2025750A353A0977682F
:1004F00065656C5F6D61785F73706565643A202532
:10050000750A363A09776865656C5F74696D655F71
:10051000746F5F6D61783A2025750A00703A097032
:1005200072696E742076616C7565730A643A09733A
:1005300065742064656661756C74730A75703A0938
:100540002B310A646E3A092D310A6C743A092B3149
:10055000300A72743A092D31300A4553432F713AEB
:1005600009717569740A0A7370656564203D2064B9
:10057000656C7461202A206D61785F7370656564B5
:10058000202A2028726570656174202F2074696D9F
:10059000655F746F5F6D6178290A776865726520A1
:1005A00064656C74613A20637572736F723D256483
:1005B0002C20776865656C3D25640A536565206865
:1005C0007474703A2F2F656E2E77696B697065644D
:1005D00069612E6F72672F77696B692F4D6F757325
:1005E000655F6B6579730A004D3E20004D25753AB5
:1005F00025733E20003F0A003D2025750A003F0A72
:100600000064656661756C74730A0025750A003FA5
:100610000A000A092D2056616C756573202D0A00A9
:10062000710A000A092D204D6F7573656B6579207D
:100630002D0A003F00433E20004C25640A000A09B1
:100640002D20537461747573202D0A686F73745F65
:100650006B6579626F6172645F6C65647328293AB7
:1006600020253032580A6B6579626F6172645F7061
:10067000726F746F636F6C3A20253032580A6B6565
:1006800079626F6172645F69646C653A202530320B
:10069000580A74696D65725F726561643332282926
:1006A0003A202530386C580A002573000A092D209D
:1006B000436F6E736F6C65202D0A4553432F713A5B
:1006C00009717569740A6D3A096D6F7573656B65AB
:1006D000790A000A092D204D61676963202D0A44BB
:1006E0003A094465627567204D65737361676520DB
:1006F000546F67676C650A583A094D61747269787E
:10070000204465627567204D6F646520546F67678C
:100710006C65202D2053686F77206B65797072654A
:100720007373657320696E206D61747269782067D8
:100730007269640A4B3A094B6579626F6172642091
:10074000446562756720546F67676C65202D205380
:10075000686F77206B65797072657373207265704E
:100760006F72740A4D3A094465627567204D6F7562
:10077000736520546F67676C650A563A095665724F
:1007800073696F6E0A533A095374617475730A433F
:100790003A09416374697661746520436F6E736FC3
:1007A0006C65204D6F64650A46312D4631303A093B
:1007B00053776974636820746F204C617965722087
:1007C000302D392028463130203D204C30290A3048
:1007D0002D393A0953776974636820746F204C612E
:1007E00079657220302D390A47524156453A0953EE
:1007F000776974636820746F204C6179657220306A
:100800002028616C7465726E617465290A423A0928
:100810004A756D7020746F20426F6F746C6F6164E5
:1008200065720A4553433A094A756D7020746F200A
:10083000426F6F746C6F616465722028616C7465BF
:10084000726E617465290A453A095072696E7420A6
:10085000454550524F4D2053657474696E67730A55
:100860004241434B53504143453A09436C656172E1
:1008700020454550524F4D0A006B65796D61705FA0
:10088000636F6E6669672E7261773A202530325841
:100890000A2E737761705F636F6E74726F6C5F6343
:1008A0006170736C6F636B3A2025750A2E636170FB
:1008B000736C6F636B5F746F5F636F6E74726F6C7A
:1008C0003A2025750A2E737761705F6C63746C5FD4
:1008D0006C6775693A2025750A2E737761705F72AF
:1008E00063746C5F726775693A2025750A2E737799
:1008F00061705F6C616C745F6C6775693A20257517
:100900000A2E737761705F72616C745F72677569CC
:100910003A2025750A2E6E6F5F6775693A20257536
:100920000A2E737761705F67726176655F657363C6
:100930003A2025750A2E737761705F6261636B736D
:100940006C6173685F6261636B73706163653A20A9
:1009500025750A2E6E6B726F3A2025750A2E7377F5
:1009600061705F6573636170655F636170736C6F05
:10097000636B3A2025750A0064656275675F636F73
:100980006E6669672E7261773A20253032580A2EDA
:10099000656E61626C653A2025750A2E6D61747210
:1009A00069783A2025750A2E6B6579626F617264E9
:1009B0003A2025750A2E6D6F7573653A2025750AE4
:1009C000006565636F6E6669673A0A64656661759E
:1009D0006C745F6C617965723A20256C750A003F12
:1009E000000A6D6F7573653A206F66660A000A6DBE
:1009F0006F7573653A206F6E0A000A6B6579626FD6
:100A00006172643A206F66660A000A6B6579626FEC
:100A10006172643A206F6E0A000A6D6174726978BF
:100A20003A206F66660A000A6D61747269783A202E
:100A30006F6E0A000A64656275673A206F66660A1F
:100A4000000A64656275673A206F6E0A000A0A4AF6
:100A5000756D70696E6720746F20626F6F746C6F54
:100A6000616465722E2E2E2000433E2000436C658B
:100A70006172696E6720454550524F4D0A00290A40
:100A8000002575002F002575005D280025640020D5
:100A900000256400200025640020002564007C00FF
:100AA00025303258006D6F7573656B6579205B6218
:100AB000746E7C782079207620685D287265702FAE
:100AC00061636C293A205B000A002530325820000F
:100AD0006B6579626F6172645F7265706F72743A90
:100AE0002025303258207C200073757370656E6449
:100AF000696E67206B6579626F6172640D0A005BD5
:100B0000575D005B535D005B525D005B445D005BC5
:100B1000435D001C034B006100740061006E0061C6
:100B200000360030002000720065007600320000C0
:100B3000002A0352006F006D0069006E0052006FC2
:100B4000006E0069006E002000430061006E0064CA
:100B50000079004B00650079007300000004030970
:100B60000409025400030100A0FA09040000010373
:100B70000101000921110100012244000705810340
:100B8000080001090401000103000000092111010E
:100B90000001227B000705820320000109040200F6
:100BA00001030000000921110100012215000705C1
:100BB0008303200001120100020000000872723B52
:100BC000F00100010200010631FF0974A10109755D
:100BD000150026FF00952075088102C00501090255
:100BE000A10185020901A1000509190129081500C3
:100BF000250195087501810205010930093115812A
:100C0000257F95027508810609381581257F950194
:100C100075088106050C0A38021581257F95017536
:100C2000088106C0C005010980A101850319012AB8
:100C3000B700150126B700950175108100C0050C9D
:100C40000901A101850419012AA002150126A002AB
:100C5000950175108100C005010906A1010507195C
:100C6000E029E715002501950875018102950175B8
:100C70000881010507190029FF150026FF009506C8
:100C8000750881000508190129051500250195053C
:100C900075019102950175039101C00011241FBED9
:100CA000CFEFDAE0DEBFCDBF04B603FE18C08091FF
:100CB000CE039091CF03A091D003B091D1038730A0
:100CC000904BA740B04B59F41092CE031092CF0333
:100CD0001092D0031092D103E0E0F8E3099512E0FE
:100CE000A0E0B1E0E2EAF2E502C005900D92AC3D71
:100CF000B107D9F723E0ACEDB2E001C01D92AE3CE4
:100D0000B207E1F70E9477160C94102979C9FF9376
:100D1000EF93E091DC02F091DD02309709F0099544
:100D2000EF91FF910895FC018591803011F0EFDF84
:100D3000FBCF0895FF27E0E230E247FF0CC041956A
:100D400097FF09C0EDE26095709580959095611DC3
:100D5000711D811D911D27FF02C0219530E350E2D6
:100D6000AA27660F771F881F991FAA1FA41710F0C4
:100D7000A41B63955A95A9F7AA3008F0A95FA05D56
:100D8000AF93F395611571058105910541F7ED323A
:100D900011F4EF93F395F21718F43F93F395FBCF0B
:100DA0008F91B5DFFA95E1F70895E991F991859171
:100DB000803021F0853219F0AADFF9CF089520E0C4
:100DC000E89455915532C1F3503311F4689455911C
:100DD0005A3348F4505390F3220F022E220F220F61
:100DE000200D250FF4CF0EF421958991999153365A
:100DF00019F3533729F1533559F1BC018827992745
:100E0000E8945C3621F4899199916894559154360F
:100E100039F446EF7EF077FF0DC08FEF9FEF0AC0E9
:100E200055374AE039F0583540E121F0523642E07A
:100E300009F00895FF93EF937DDFEF91FF91B7CF16
:100E4000FF93EF93FC0181918030B9F360DFFBCF1A
:100E5000FF93EF9368DFF1CFDF93CF93CDB7DEB78A
:100E60002596A3DFCF91DF9108958630B8F46530E1
:100E7000A8F44F3098F450E09FE0699F400D511D59
:100E80001124FA019BE4899FE00DF11D1124EE0F5E
:100E9000FF1FE455FF4F85919491089581E090E004
:100EA0000895E3CF089581E00895FDCF0895FBCF25
:100EB0000895F9CF0895F7CF0895FDCF08950895C7
:100EC0000895FDCF089508950895A6E0B0E0EBE6FB
:100ED000F7E00C94832849835A839E833091E30280
:100EE00089819A81311117C03E81332389F02223F1
:100EF00079F09FD5182F682F89819A8179D56981DA
:100F00007A81812F0E9432132696E3E00C949F2869
:100F100080D5182FF4CF8DD569817A81F3CFFC016C
:100F2000262F408151816281738184819581CDCF4B
:100F3000CF93DF93EC0161E0F2DFBE01B6DF8823DF
:100F400049F061E0CE01EBDFBE01B1DF8170DF91DE
:100F5000CF91089580E0FACF0F931F93CF93DF9343
:100F6000EC0160E0DCDF8C01BE01AADFBE01C8013C
:100F7000A8DFDF91CF911F910F9108950F931F93D9
:100F8000CF93DF93EC0161E0CADF8C01BE0191DFFA
:100F9000811106C080E0DF91CF911F910F910895DC
:100FA000BE01C8018ADF8823A9F3BE01C8010E94DF
:100FB000471E882379F3BE01C8010E94071A8823BF
:100FC00049F3BE01C8010E94DF19882319F3BE014D
:100FD000C8010E9430148823E9F2BE01C8010E94B2
:100FE00042148823B9F2BE01C8010E945B14D3CF1A
:100FF00021E030E0A90102C0440F551F8A95E2F7B5
:10100000CA012FC4CF93C82F81E090E00C2E02C0FC
:10101000880F991F0A94E2F70E9437118C2FE8DF9E
:10102000CF91089581E00895FDCF0895FBCF0895F5
:10103000CF93C82FCED38C2FF7DF8C2FF7DF2FEF76
:1010400084E39CE0215080409040E1F700C0000024
:10105000CF91089581E0ECDF0C94072180E0E8DF78
:101060000C942B2130DF0E9443203AC03BD02CDF70
:101070000C944720829590E09C01220F331F220F91
:10108000331F2C7C95958795959587958373282B91
:1010900030E0C901880F991F8A7A35952795257503
:1010A000822B0895CF93DF93D92FE4DFC82F8D2FA4
:1010B000E1DF9C2FDF91CF91089581E0089508959D
:1010C000CF93DF93D82FF9DFC82F882311F08D2F0E
:1010D000F6DF8C2FDF91CF9108950895F1CF089519
:1010E00080E0FCCF0E948F1EF9CFCF930E948F1E0D
:1010F000C82F8091DE028C17F1F0C093DE020E94AF
:10110000D7206093DF027093E0028093E102909316
:10111000E20280917A038570853059F41F92CF9353
:1011200080E394E09F938F9397DE0F900F900F9042
:101130000F908C2FD3DFCF910895ADE0B0E0E3EABC
:10114000F8E00C948428488759876A877B878C87C6
:101150009D87911190D71F8286E0FE013896DE01AF
:10116000119601900D928A95E1F78D8181110CC045
:1011700029813A814B815C816D817E818F81CBD6C3
:101180002D96E2E00C94A028CE010196D1DE8111CB
:10119000EFCFF6CFFC012481213019F480819181B9
:1011A00079C40895662321F00E94641B0C942F1CBF
:1011B0000E94B61BFBCFCF93C82F8823B9F082388B
:1011C000B9F40E949E1E81FD11C089E30E94A01FF8
:1011D000BAD72FEF87EE93E0215080409040E1F79F
:1011E00000C0000089E30E94A61FADD7CF910895EB
:1011F000833899F40E949E1E80FDF8CF83E50E94FB
:10120000A01FA1D72FEF81EE94E0215080409040A5
:10121000E1F700C0000083E5E6CF843899F40E942E
:101220009E1E82FDE3CF87E40E94A01F8CD72FEF84
:1012300081EE94E0215080409040E1F700C0000032
:1012400087E4D1CF8CEF8C0F813A90F48C2F0E94E1
:1012500084198111CBCF8C2F0E94651F882321F028
:101260008C2F0E94A61F6FD78C2F0E94A01FBDCF6E
:1012700080E28C0F883040F4C77081E001C0880F95
:10128000CA95EAF7DBD6B1CFEBE5EC0FE33040F4DB
:10129000F0E0E25BFE4F808190E00E94021FA6CF4B
:1012A000E8E5EC0FEB3150F4F0E0EE0FFF1FE85EE5
:1012B000FE4F808191810E94291F98CF83E38C0F7C
:1012C000833108F093CF61E08C2F6CDF8FCF8823C0
:1012D00009F44DC0823861F40E949E1E81FF47C010
:1012E00089E30E94A01F2FD789E30E94A61F2BC766
:1012F000833851F40E949E1E80FF39C083E50E940E
:10130000A01F21D783E5F1CF843851F40E949E1E9F
:1013100082FF2DC087E40E94A01F15D787E4E5CF88
:101320009CEF980F913A08F390E2980F983048F4A8
:10133000877091E001C0990F8A95EAF7892F84D6CA
:10134000D6CF9BE5980F933020F490E080E00C948A
:10135000021F98E5980F9B3120F490E080E00C94F8
:10136000291F93E3980F933110F460E01BCF089589
:101370001F93CF93DF93182FEB011DDF209731F4DC
:10138000812FA5DFDF91CF911F9108958FE99FE015
:101390000197F1F700C000002197F0CF70E060E006
:1013A000893311F460E570E0E3CF882311F046D66D
:1013B000CAC60895882311F047D6C5C60895B0E07F
:1013C000A0E0E5EEF9E00C947D286C01D62FC72F44
:1013D000FC011581068102950F7026D6E82E882320
:1013E000E9F0E12E1123D1F08C2F807F803461F061
:1013F00080E28D0F8830F8F08C2F807E803221F4CF
:10140000D230C8F00023B9F08091A80382FF13C046
:1014100082E0B5D609D691E0E82EE926BC2EB2943A
:101420009FE0B922FBE0FB1580F1EB2DF0E0EE5ED2
:10143000F64D0C946E28E12CF1CF0C2F0F70C07F6D
:1014400011F00295007F112381F0002349F080E222
:101450008D0F883010F0D11105C0802FEFD573D6D5
:101460008D2F40C0802FFAD5FACF8D2F30DF00238B
:1014700061F080E28D0F883010F0D11103C0802F11
:10148000E3D502C0802FF0D55ED6EB2DE850FF0BE0
:10149000349708F04CC10E948F1E20DECDB7DEB716
:1014A000E9E00C9499282C2F2F70F22EC07FC032C7
:1014B00019F0F29480EFF822DD2341F0D13081F170
:1014C000112309F439C00023C9F0CACF8091A803C1
:1014D00082FD10C0112341F0FF2019F08F2DAED5F1
:1014E00032D680E068DED1CF80E0F1DEFF2069F205
:1014F0008F2DC6CF112359F0011103C08F2D55DF59
:10150000C4CF013009F0C1CF8F2DC9D5BECF011195
:10151000BCCF8F2D4FDF8F2DCDD58F2DB2D5B5CF31
:10152000112321F0063008F0B0CFE8CF053008F0E5
:10153000ACCF8F2D3FDFA9CF0023D9F3D93349F4A6
:101540003FEF87EE93E0315080409040E1F700C0DC
:1015500000008D2FBCDE99CF8C2F869586958370E9
:1015600069F0813009F091CF8D2F9C2F937011116C
:1015700002C080E090E00E94291F87CF8D2F9C2F12
:101580009370111102C080E090E00E94021F7DCF95
:10159000612F8D2F07DE79CF8C2F837081F511118C
:1015A00074CF4D2F429546954770440F440F2D2F11
:1015B0002F7030E0042E02C0220F331F0A94E2F78E
:1015C00090E080E0D4FF09C08FE090E002C0880F77
:1015D000991F4A95E2F780959095C695C695C37078
:1015E000822B932BC23039F040F4C13011F042D13C
:1015F0004CCF39D14ACF45D148CF33D146CF86954C
:10160000112311F08C2F8170882309F43ECF4D2FC8
:10161000429546954770440F440F2D2F2F7030E0B0
:10162000042E02C0220F331F0A94E2F790E080E0FC
:10163000D4FF09C08FE090E002C0880F991F4A953F
:10164000E2F780959095C695C695C370822B932B33
:10165000C23039F040F4C13011F067D116CF5ED1FD
:1016600014CF6AD112CF1AD110CFCF70112321F02D
:101670008C2F28D18D2F43CF8D2F9CDE8C2F30D1F6
:1016800004CFD23F39F160F4D03FB9F0D13F81F0BF
:10169000112309F43CC00111E3CE8C2F8F711EC0C1
:1016A000D33FF1F0D43FA1F78091A80382FD20C081
:1016B0008C2F8F71112319F311C0112339F00530CC
:1016C00008F0E3CE8C2F8F711BD1DFCE063008F0EF
:1016D000DCCEF8CF8C2F8F711111D1CFF3D0D5CEB6
:1016E000112321F08C2F8F71E3D0CFCEDED0CDCE61
:1016F000112329F063E08C2F8F712AD5C6CE81E0AB
:101700003ED5023008F4C1CE82E039D5BECE0023EA
:1017100059F0D93309F01DCFEFEFF7EE23E0E15098
:10172000F0402040E1F713CF8C2F8F71A8CFEE202F
:1017300009F4B4CE75D480FDB1CEF60115826AD419
:10174000C1D0C60117D066D4CBD0A8CE0F931F93BB
:10175000CF93DF93EC01688179818D81A4D18C01D5
:10176000F2D07ED0B801CE012ADEDF91CF911F9159
:101770000F910895CF93DF93EC018C81882381F042
:10178000CE01FCDB81110FC04FD4882349F08D813D
:10179000882331F08091A80382FF02C082E0EFD459
:1017A000DF91CF910895CE01D1DFCE01D5DBF8CF07
:1017B00090E080E00E94021F90E080E00E94291FDC
:1017C0005AD4C1D40E94E21C0C942F1C0E94AC1F5E
:1017D000EFCF41D4FBCF92959F70963091F058F4A3
:1017E000925F9F70923058F4803F19F030F4883E39
:1017F00030F481E008959A5FF4CF843FD1F380E024
:101800000895883EB0F3813FD1F7F3CFFC012481E6
:10181000222321F0808191813DD1DDCF80E00895A8
:10182000A6E0B0E0E6E1FCE00C9484282696E2E035
:101830000C94A028A7E0B0E0E0E2FCE00C9484283F
:101840002796E2E00C94A0280895FECF0895FDCFDE
:101850000895FADFFCDF90930F0380930E03089541
:101860000895F7CF089520910E0330910F03822B36
:10187000932BEFCF20910E0330910F0382239323FC
:10188000E8CF20910E0330910F0382279327E1CFF9
:10189000DBCF0895FDCF0895D7CF0895FDDFFADFA0
:1018A00090930D0380930C03089590E080E0F6CFB1
:1018B00021E030E0A90102C0440F551F8A95E2F7EC
:1018C000CA01ECCF21E030E002C0220F331F8A951D
:1018D000E2F780910C0390910D03822B932BDECFC6
:1018E00021E030E002C0220F331F8A95E2F72095F5
:1018F000309580910C0390910D0382239323CECFDA
:1019000021E030E002C0220F331F8A95E2F7809178
:101910000C0390910D0382279327C0CF20910C03D5
:1019200030910D03822B932BB9CF20910C03309172
:101930000D0382239323B2CF20910C0330910D032A
:1019400082279327ABCF0895262F277091E001C0FF
:10195000990F2A95EAF723E0769567952A95E1F79E
:10196000660F771F660F771FFA01E60FF71F50E02B
:1019700040E0682F70E08191DF0111979B01042EF8
:1019800002C0369527950A94E2F721702195282701
:10199000292328272C934F5F5F4F4430510559F777
:1019A0000895A82FA77023E0969587952A95E1F7CB
:1019B000880F991F880F991FFB01E80FF91F50E04E
:1019C00040E080E0219130E00A2E02C03695279554
:1019D0000A94E2F721703327042E01C0220F0A94E3
:1019E000EAF7822B4F5F5F4F4430510559F7089556
:1019F000262F953068F48F3058F4682F70E08FE010
:101A0000989F600D711D112444EE52E0822F9CCFEF
:101A10000895292F953058F48F3048F490E064EE03
:101A200072E03FE0239F800D911D1124BACF80E02A
:101A30000895B0E0A0E0EFE1FDE00C947D287C018A
:101A400000910C0310910D0380910E0390910F03F0
:101A5000082B192BCFE0D0E0CC24C394D12CBC2E82
:101A6000C6010C2E02C0880F991F0A94E2F780234A
:101A70009123892B49F4219790F7B12C8B2DCDB769
:101A8000DEB7E9E00C949928B7018C2FF6D50197C1
:101A900091F3F4CFCF93DF93EC01CBDFBE01EDD513
:101AA000DF91CF9108951F93CF93DF93EB01909136
:101AB000E302992331F0CB01EDDFDF91CF911F914C
:101AC0000895882351F0CB01B4DF182F682FCE0181
:101AD0008FDFBE01812FD1D5F0CFCB019ADF182F38
:101AE000F8CF1F93CF93DF93C091100317E080913D
:101AF00011038C1304C0DF91CF911F910895D0E0A2
:101B00001C9FF0011D9FF00D1124EE5EFC4F208103
:101B10003181428153816481758186818BDE21967A
:101B2000C770E5CF20914A0330914B0340914C039D
:101B300050914D0360914E0370914F03809150037B
:101B400079CECF93DF9380915003807F09F04BC013
:101B500080914F03882309F446C0E091100350910F
:101B60001103C0914B03D0914A0360914C037091D3
:101B70004D0347E05E17B9F18E2F90E0E49FF0012E
:101B80001124EE5EFC4F2481222381F1489FF00155
:101B9000499FF00D1124DF01AE5EBC4F11962C91D0
:101BA00011972C1323C02C912D1320C015962C9126
:101BB000159721111BC012962D913C91261B370BB6
:101BC000283C310598F4809150038F708061809398
:101BD0005003E85EFC4F80818F70806180838AE4CF
:101BE00093E0C8DD7EDFDF91CF910895FC0131964F
:101BF000E770C0CF482F209110039091110357E058
:101C0000291302C080E0089530E0529FF001539FF5
:101C1000F00D1124EE5EFC4F8181681306C08081B7
:101C2000481303C085818111EECF2F5F3F4F27708E
:101C3000E7CFA4E1B0E0EFE1FEE00C947A288C015C
:101C400086E0F801DE011F9601900D928A95E1F77A
:101C5000F8018481E5809AE4A92E93E0B92E909151
:101C60004E0391111AC08823A9F0EE2089F0C80113
:101C7000CDDDF82E882361F087E0F801D5010190D1
:101C80000D928A95E1F7C50185DA5BDF4BDF59C01C
:101C9000C80170DDFF24F39454C0C080D1808280DD
:101CA0009380F0904F0320914C0330914D03A40199
:101CB000421B530BFF2009F4E9C0483C510508F0D2
:101CC0009CC0882309F43DC090914B038091500340
:101CD000282F207F09F056C09D1114C090914A030F
:101CE000C91210C0E11048C08F708061809350030A
:101CF00019DF8AE493E03EDD80915003F80186838A
:101D0000F12C1FC0E11038C06D2D8C2D73DF6D2DAF
:101D10008C2D70DFE82E8111F3CFCF86D88A8F8586
:101D20009889B8DE292F22952F70243078F49F707F
:101D30002230A0F09923B1F0F8019681907F91F4C0
:101D4000FE2C8F2D6496ECE00C9496282A5F2F7061
:101D5000223060F0C8010EDDEF2CF2CF992311F094
:101D6000882371F3805E883058F3F4CF803F40F3CE
:101D7000815F833078F7E4CF809150038160809356
:101D80005003BECF9D1112C090914A03C9120EC0DC
:101D9000E1100CC08683C801EDDC87E0F801AAE4FD
:101DA000B3E001900D928A95E1F770CFC8012EDD66
:101DB000882309F46DCFEE2009F46ACF8091500397
:101DC000803280F020914A0330914B033987288775
:101DD0009B868A8690914E039C871D868E87CE01B6
:101DE0000896C8DC87E0F801AAE4B3E001900D9200
:101DF0008A95E1F7A6DE96DE4DCF90915003292F0C
:101E0000207F89F4682D9A8A898AA6017A899E2D75
:101E100007DD8AE493E0AEDC87E0F50111928A9554
:101E2000E9F780DE6DCF882309F48BCF80914B03D7
:101E30008D110FC080914A03C8120BC0E11009C078
:101E40009683C80197DC87E0F50111928A95E9F73E
:101E500078CFC801DBDC882309F41ACFEE2009F41F
:101E600017CF80915003803208F4BCCF20914A03F1
:101E700030914B033A8329839C828B8290914E034D
:101E80009D831E828F83CE010196ABCF483C5105C6
:101E9000A8F5882309F4FECEFE2CEE2009F4F8CE36
:101EA00080914B038D111EC080914A03C8121AC045
:101EB0008091500380FD0DC0982F907F51F0868354
:101EC000903F09F468CF982F907F905F8F70892B97
:101ED00061CF87E0F801AAE4B3E001900D928A9502
:101EE000E1F72FCFC80192DC81117CCF80915003A4
:101EF000816080935003C8013DDC23CF682D9A8A0E
:101F0000898AA6017A899E2D8BDC87E0F5011192E2
:101F10008A95E9F7BBCEAEE0B0E0E1E9FFE00C94D2
:101F20008328288739874A875B876C877D878E87D8
:101F3000CE0108967EDE8823A9F06C85662339F0F1
:101F4000288539854A855B857D858E8573DC17E01C
:101F5000809110039091110389133BC02E96E3E00A
:101F60000C949F2887E0FE013896DE0111960190BF
:101F70000D928A95E1F78C85882349F3209111030E
:101F800030E0C901019687709927409110034817E6
:101F9000190691F097E0929FD001939FB00D112404
:101FA000AE5EBC4FFE01319601900D929A95E1F71D
:101FB0008093110396DDCBCF0CDC109211031092AD
:101FC000100387E0EAE4F3E0DF011D928A95E9F768
:101FD000BECF819FC00111248E5E9C4F2ADE8823D4
:101FE00009F4BCCFE09110031E9FF0011124EE5EB6
:101FF000FC4F2081318142815381648175818681CA
:1020000019DC8091100390E00196877099278093E6
:1020100010039ECF809159038695869586950895E5
:10202000809159038770089590915903977081E0CA
:1020300009F480E008958091650308959091650307
:10204000892B80936503089580959091650398236B
:102050009093650308951092650308959091640329
:10206000892B80936403089580959091640398234D
:102070009093640308951092640308950895FECF29
:10208000089590915A03292F282329F080958923B8
:1020900080935A03F4CF08950895FECF0895909148
:1020A0005B03292F2823281721F0982B90935B039B
:1020B000F4CF089590915B03292F282329F0809570
:1020C000892380935B03E9CF089580915B03882384
:1020D00021F010925B0380E0E0CF08950F931F93EF
:1020E000CF93DF930091000110910101C09165032E
:1020F00080916403C82B80915B03882329F0C82B4F
:102100000E94501F8111E1DFF801C083C0910001DE
:10211000D091010148E050E061E573E0CE010E94FA
:10212000BF28892B59F088E0FE01A1E5B3E00190BA
:102130000D928A95E1F7CE010E94A01EDF91CF910A
:102140001F910F910895CACF08950895FECF089565
:102150009091A80392FF0EC098E0899F90011124EE
:10216000622B60935903AEDB809159038695869567
:102170008695ECCFA7CB1092590380E0E7CF9091E2
:1021800059038095892380935903282F277059F488
:10219000891749F09091A80392FF05C0869586950E
:1021A00086959EDBE8CF0895CF93C82F8091A80332
:1021B00082FB992790F99C17C9F0C0FB82F98093A4
:1021C000A80387EA93E057D082E0D9DF80917A03B1
:1021D00080FF0CC01F92CF9380E494E09F938F9375
:1021E0000E942C070F900F900F900F90CF910895A1
:1021F0008091A80382FB882780F991E08927D4CFBA
:1022000081E0D2CF80E0D0CF60E070E0CB01D6C3D8
:1022100060E070E0CB01CCD3F7CFA3E0B0E0E3E126
:10222000F1E10C9484287DD388D31B82CE010396E0
:102230009BD381E090E090930F0380930E03A0D393
:102240001A8219828A8184618A83CE010196A9D378
:10225000DFDF2396E2E00C94A028DFCF089573C35C
:10226000089560C3089575C3089584C3089588C30D
:1022700008958BC3089595C30895A6C30895A6E055
:10228000B0E0E5E4F1E10C9482280E94CB208C01BF
:1022900080916603909167038017910781F01982FE
:1022A0001A820E94CB20682F49815A81792F80E0C1
:1022B00090E00E949D0810936703009366032696A2
:1022C000E4E00C949E280E94D720609376037093DC
:1022D00077038093780390937903609372037093EC
:1022E000730380937403909375030895089508957C
:1022F000FDCF08950895FEDFFBCF0895FECF08952A
:102300000895FEDFFBCF8AEC92E204D5F0DFF3CF35
:1023100081E00895FDCF0895FBCF089508950895B5
:102320000895FCDFFCDFFCCF9CDF811101C095DF4D
:102330008AE793E098DF87EA93E09BDF96DF91DA04
:1023400080910C0390910D03A5CA0E94C22047D42E
:10235000EBDF0E946D08D5CFA6E0B0E0E2EBF1E143
:102360000C947828D7DF811109C089DF0E94041DF1
:102370000E9475082696EEE00C94942842D428E634
:10238000822E23E0922E640110E0F601E190F1909C
:102390006F01812F24D31F5F153009F447C0E81661
:1023A000F90699F380917A0381FD22D3B5DF782E67
:1023B00010E066246394812F12D37C01F401A19074
:1023C000B1904F018A159B0561F100E0CC24C394C4
:1023D000D12CAE24BF24C5018C219D21892BC1F0B5
:1023E0007720B1F009831A830E94CB209C838B83D2
:1023F0006D8221E0C7018C219D21892B09F420E009
:1024000049815A816B817C818D81922F0E949D0828
:102410000F5FCC0CDD1C0F30F1F6F4013297F18226
:10242000E0821F5F153039F64EDFA0CFE816F906BF
:1024300009F0B8CF9ACF1F93CF93DF9320D1EC014F
:10244000C11580E5D807F0F5C11580E4D80708F07C
:102450009AC0C03ED10520F5CD3CD10508F082C020
:10246000C83AD10578F4C53AD10508F073C0C13037
:10247000D10519F1209709F1C430D105F0F4D0E06D
:10248000C0E01BC0C33CD105D0F7C85AD0E0CC0F88
:10249000DD1FCF5ADE4F0990D881C02DD4640DC006
:1024A000C11580E2D80708F0CDC0C11581E0D8077A
:1024B00008F05AC0C83ED10510F7CE01DF91CF9188
:1024C0001F910895C03682E5D80718F5C03482E51B
:1024D000D80708F068C0C03282E5D80708F05CC0B1
:1024E000C11582E5D80708F493C02C2F26952695B0
:1024F00080E2289F900111248C2F8370C1E0D0E0EE
:1025000002C0CC0FDD1F8A95E2F7C22BD32BDD680A
:10251000D4CFC03A82E5D80760F4C03882E5D80746
:1025200008F456C0CF71D0E0DC2FCC27C46FD06A3E
:10253000C4CFC03C82E5D80708F45FC0C03E82E546
:10254000D80708F09CCFDC2FCC27CC27DF71C06FD9
:10255000D06AB3CFC55AD0E0C957DE4FC881D0E0AA
:10256000D064ABCFD065A9CF8D2F2BD1182FCE0142
:10257000992785D0C12FD0E0DC2FCC27CC27DF7165
:10258000C82BD92B9ACFCE01992779D0CC27DF70D1
:10259000C82BD92BD06A91CFCF71D0E0DC2FCC27BC
:1025A000C16FD06A8ACF2C2F26952695277080E29E
:1025B000289F900111248C2F8370C1E0D0E002C0CD
:1025C000CC0FDD1F8A95E2F7C22BD32BDC6875CFC9
:1025D0002C2F26952695277080E2289F90011124A4
:1025E0008C2F8370C1E0D0E002C0CC0FDD1F8A9534
:1025F000E2F7C22BD32BDA6860CF8C2F8F71E1D03A
:10260000C82FD0E0DC2FCC27CC27DF71D06255CF8C
:102610008C2F8F71D6D055E0D695C7955A95E1F796
:10262000CF70D0E0DC2FCC27282F30E084FF06C00D
:1026300044E0220F331F4A95E1F73327C22BD32BF7
:10264000D0693BCF8D2F8F71BCD0182FCE01992729
:1026500016D0C12FD0E0DC2FCC27CC27DF71C82BC0
:10266000D92BD4CF462F753028F46F3018F4672F4C
:102670000C94510790E080E00895F4DFDCCE8238BE
:102680009105B9F1B0F48133910509F47DC048F4A6
:102690008932910509F46DC08A32910509F47BC035
:1026A00008958533910509F45FC08933910509F1D7
:1026B0000895833E9105D9F138F4803E910529F1C2
:1026C000823E910579F10895863E9105D9F1873EC4
:1026D000910509F43EC0843E910541F52091A8037F
:1026E00021FF24C08091A70384FD19C087EE90E0EC
:1026F00008952091A703237009F05AC02091A803E0
:1027000023FF14C089E290E008952091A70320FDE3
:1027100038C03091A80330FF09C024FF43C090E0C7
:1027200080E008952091A70322FDF7CF089520911E
:10273000A70322FD3AC03091A80330FD39C024FF21
:10274000F5CFEDCF2091A70323FFF0CF24FDE7CFF6
:10275000CDCF2091A70323FD2EC03091A80331FFD8
:10276000EECF84EE90E008952091A70325FFDECF01
:10277000C9CF2091A70325FD21C02091A80323FFE5
:10278000D5CF89E390E0D2CF2091A70326FFCECF0B
:102790008AE290E008952091A70326FFC7CF81E346
:1027A00090E0089583EE90E0089582EE90E0089521
:1027B00080EE90E0089586EE90E0089585E390E045
:1027C00008959091A70392FF10C041E0282F247133
:1027D000243009F040E031E0282F2871283009F03A
:1027E00030E0431711F02CE0822793FF10C041E046
:1027F000282F2471243109F040E031E0282F28717E
:10280000283109F030E0431711F02CE08227309195
:10281000A80330FF10C051E0282F2171213009F0AA
:1028200050E041E0282F2871283009F040E054178B
:1028300011F029E0822731FF10C041E0282F2171DB
:10284000213109F040E031E0282F2871283109F0CA
:1028500030E0431711F029E0822794FD877E089528
:10286000CF939C01205E3245C1E02032310538F41F
:10287000FB01C581C11103C08F710E9402088C2F1A
:10288000CF9108959C01FB018581882391F02B3520
:10289000FCE73F0761F02C359CE7390729F02A3522
:1028A0003C4741F4ADDC01C0A3DC80E00895AADC24
:1028B000FCCF81E008959C01FB018581882379F19B
:1028C0002130FCE73F0741F120F421153C4749F056
:1028D00008952230FCE73F0741F023303C47D9F010
:1028E00008950E942A0880E0089590917A03892F24
:1028F0008E7F90FF816080937A0380FF09C087E616
:1029000094E09F938F930E942C070F900F90EBCF32
:1029100085E594E0F6CFA3DC0E942E08E4CF81E0A9
:102920000895089590E080E00E94DD2821E0833E34
:102930009E4F09F020E0822F089563EE7EEF90E035
:1029400080E00C94FC286FEF7FEF90E080E00C9427
:10295000FC28CF93DF93EC0182E090E00E94D52821
:102960008883DF91CF910895FC01608182E090E03F
:102970000C94E22883E090E00E94D52890E008952E
:10298000682F83E090E00C94E228CF93DF93EC0172
:1029900084E090E00E94DD2899838883DF91CF91C5
:1029A0000895FC016081718184E090E00C94FC2822
:1029B000AB01BC018FE090E00C94F428AB01BC01AA
:1029C00083E190E00C94F428682F8EE090E00C9462
:1029D000E2280895FECF08950895FECF0895E82FC8
:1029E000F0E0EE0FFF1FED54FC4F808191810895C0
:1029F000B0E0A0E0EEEFF4E10C947A2888E894E0EF
:102A00009F938F930E942C0783EBE82E83E0F82E90
:102A10000F900F90912C812C93E8A92E94E0B92E61
:102A200020E8C22E24E0D22E0AE714E0C8E7D4E062
:102A30009F928F92BF92AF920E942C07DF92CF920B
:102A40000E942C07F701819191917F010E94520809
:102A50009F938F931F930F930E942C07DF93CF9325
:102A60000E942C079FEF891A990AEDB7FEB73C9692
:102A70000FB6F894FEBF0FBEEDBFF5E08F169104C0
:102A8000B9F6CDB7DEB7ECE00C94962880EA8A95CB
:102A9000F1F7089500C00895F9CF0895F894E82F4C
:102AA000E295EF70F0E031A1282F2F7081E090E0E7
:102AB00001C0880F2A95EAF7982F9095932391A348
:102AC00092A1892B82A3789408950F931F93CF939B
:102AD000DF93C9E9D1E089918F3F09F0DFDF81E021
:102AE000CE39D807C1F7CAE8D1E009E911E08991E8
:102AF0008F3F09F0D3DF0C171D07C9F7DF91CF9186
:102B00001F910F910895AF92BF92DF92EF92FF92C3
:102B10000F931F93CF93DF938C01D62EC62FD0E057
:102B2000CE0187569E4F7C01FC0120812F3F09F486
:102B300049C0F894E22FE295EF70F0E031A12F70D8
:102B400081E090E001C0880F2A95EAF7932F982B37
:102B500091A392A18095892382A378949BDFEAE8D0
:102B6000F1E041E050E0B12CA12C21912F3FA1F1E7
:102B7000A22FA295AF70B0E090968C9190E02F704C
:102B800002C0959587952A95E2F780FD25C0CA0178
:102B9000A82AB92A440F551F81E0E939F80729F717
:102BA000F70180818F3F09F079DF61E0A114B10462
:102BB00009F460E08D2D70DFCC0FDD1FC00FD11F39
:102BC000B982A882DF91CF911F910F91FF90EF9072
:102BD000DF90BF90AF90089590E080E0D9CF75DF8F
:102BE0008AE0E3EBF3E0DF01982F1D929A95E9F775
:102BF000E9EAF3E0DF011D928A95E9F785E039D033
:102C0000E9CEAAE0B0E0E7E0F6E10C9481288E017D
:102C10000F5F1F4F8AE0F80111928A95E9F7F12CB6
:102C20006F2DC80170DFF394F5E0FF12F9CF4AE091
:102C300050E0B80189EA93E00E94BF2821E00097A4
:102C400009F420E0892B41F08AE0F801A9EAB3E019
:102C500001900D928A95E1F745E063EB73E089EA14
:102C600093E008D0182FB9DE812F2A96E5E00C9466
:102C70009D280895B0E0A0E0E0E4F6E10C947E2801
:102C80006C017B01042FC22F222379F081E0809315
:102C90007D030E94CB2090937C0380937B0380E094
:102CA000CDB7DEB7E8E00C949A28D0917D03DD2300
:102CB000B1F380917B0390917C030E945C20059787
:102CC00070F310E0000F111FA801B601C7010E94A8
:102CD000BF28892B31F0A801B601C7010E94CC287A
:102CE000CD2F10927D038C2FDBCF36CB08950E9421
:102CF00065200E942C2307DB0E94442326DB0E94D0
:102D00004D230E945023F1DF0E9472230E947821FC
:102D100008DBF7CF9093DD028093DC020895809169
:102D200002011F928F93809103011F928F938091D4
:102D300006011F928F93809107011F928F938091BC
:102D400008011F928F93809109011F928F938FE941
:102D500094E09F938F930E942C078DB79EB70E9699
:102D60000FB6F8949EBF0FBE8DBF0895883248F508
:102D70008E3108F07DC08B3069F130F4873009F472
:102D8000DEC08EEF95E0EFC0833109F467C0843177
:102D9000C1F780E296E09F938F930E942C070F90DB
:102DA0000F9080918203882309F40FC1109282034F
:102DB000109281031092800310927F0310927E0381
:102DC00024C08F3409F4D4C008F03EC0893209F31E
:102DD0008833B9F683E296E09F938F930E942C0785
:102DE0009EDF1F9281E08F931F9288E08F938CE18A
:102DF00095E09F938F930E942C078DB79EB70896FE
:102E00000FB6F8949EBF0FBE8DBF20918203222380
:102E100009F4D2C080917E0390917F03009711F452
:102E20008EE991E09F938F931F922F938CEE95E004
:102E30009F938F930E942C070F900F900F900F90ED
:102E40000F900F9081E00895813509F4A5C008F432
:102E5000A5C0823509F095CF81E08BC082E196E074
:102E60009F938F930E942C075ADF0F900F90CDCF26
:102E70008D5180938203833009F446C078F4813009
:102E8000E1F08230C1F1109282038FE096E09F93CF
:102E90008F930E942C070F900F901BC0853009F470
:102EA00045C0D8F1863079F782E091E090938103B4
:102EB0008093800386EE91E008C089E091E09093D2
:102EC00081038093800382EA91E090937F03809353
:102ED0007E0380918203882309F497CF1F928F93FA
:102EE0008BE096E09F938F930E942C070F900F909A
:102EF0000F900F908ACF88E091E0909381038093A8
:102F000080038BEA91E0E1CF87E091E09093810329
:102F10008093800387EB91E0D8CF86E091E0909397
:102F200081038093800384EC91E0CFCF83E091E034
:102F3000909381038093800383ED91E0C6CF81E07D
:102F40008093090184E1809308018AE0809307015E
:102F50008EE18093060188E08093030188E28093EC
:102F6000020181E096E09F938F930E942C077DCF12
:102F70008AE0E0918003F09181033097D1F02081C5
:102F8000082E000C990B820F911D8F3F910541F087
:102F90003CF08FEF808307C08FEFEBCF86EFE9CF58
:102FA00097FFF8CF108280811F928F9388EF95E072
:102FB00099CF85EF95E0D7CF88EE95E09F938F93DB
:102FC0000E942C070F900F903DCF80E00895CF9383
:102FD000C82F1F928F9389E396E09F938F930E944F
:102FE0002C0781E090E002C0880F991FCA95E2F794
:102FF0000E94310C0E94E90B0F900F900F900F90E0
:10300000CF910895A3E0B0E0E8E0F8E10C947E28C9
:103010008B3109F42EC108F0BEC08B3009F4DCC03E
:1030200008F090C0863009F4EFC068F4853009F4E8
:10303000C0C08FED99E09F938F930E942C070F9053
:103040000F9080E0F9C0873009F4FAC0883089F722
:103050000CD91F921F929F938F9381EC99E09F93BD
:103060008F930E942C07CE010396FDD88B8183FBA2
:10307000882780F91F928F938B8182FB882780F9A4
:103080001F928F938B81869581701F928F938B8176
:1030900081701F928F938B811F928F9388E799E0A5
:1030A0009F938F930E942C07CE010196E2D88A81CC
:1030B00083FB882780F91F928F93898187FB88275C
:1030C00080F91F928F93898186FB882780F91F9250
:1030D0008F93898185FB882780F91F928F9389813F
:1030E000829581701F928F93898183FB882780F955
:1030F0001F928F93898182FB882780F91F928F937B
:103100008A81869581701F928F938A8181701F9228
:103110008F938981869581701F928F9389818170A9
:103120001F928F938A818F9389818F9389E798E08B
:103130009F938F930E942C070FB6F894DEBF0FBEAB
:10314000CDBF60C0803109F4AEC080F48E3009F08C
:1031500070CF90917A03892F8B7F92FF8460809348
:103160007A0382FF9DC08AE09AE08FC0863109F41D
:10317000AAC0893109F05DCF8BEF91E09F938F93C7
:1031800089EA96E09F938F930E942C070F900F90EF
:103190000F900F9037C08A3261F1A0F4873231F17D
:1031A00028F48E3108F445CF8D5121C0893209F0C1
:1031B00040CF8DE49AE09F938F930E942C070E944A
:1031C0002A081EC0833478F48A3308F097C0853308
:1031D00069F0883309F02DCF83ED96E09F938F93AC
:1031E0000E942C070DC0833409F023CF80E0EFDE6E
:1031F00009C08DE69AE09F938F930E942C072DD8EB
:103200000F900F9081E018C080917A03807F8093A7
:103210007A038CEA96E09F938F930E942C0789E6AD
:103220009AE09F938F930E942C0781E08093830301
:103230000F900F900F900F902396E8E00C949A282F
:1032400090917A03892F8E7F90FF816080937A031B
:1032500080FF03C081E49AE0C1CF84E39AE09F93AA
:103260008F930E942C0780917A03817F80937A0349
:10327000C7CF90917A03892F8D7F91FF82608093D1
:103280007A0381FF0AC087E29AE09F938F930E949E
:103290002C0780917A038160E9CF89E19AE09ECF83
:1032A0008AEF99E09BCF90917A03892F877F93FFD4
:1032B000886080937A0383FF03C08EEE99E0E5CFA8
:1032C00081EE99E08BCF73D7F62EE72ED82EC92E3C
:1032D000D5D6082FB7D6182F22D5CF92DF92EF92EE
:1032E000FF921F920F931F921F931F928F938EE353
:1032F00096E09F938F930E942C071ECF895377CF20
:1033000080E00895FDCF0895CF93C82F8091830367
:103310008130B1F0882339F0823009F44CC010922A
:10332000830380E00BC00E941B108232D1F78C2FE8
:10333000E7DF81111DC08C2F65DE8170CF9108956C
:103340000E941B10823299F38C2FDCDF811127C081
:10335000C43139F180F4CB3091F0C03131F183E3E5
:1033600096E09F938F930E942C070F900F901BC0A5
:1033700081E090E0E2CFC932A1F0C83381F78CEA56
:1033800096E09F938F930E942C0785E396E09F938E
:103390008F930E942C070F900F900F900F9081E059
:1033A000CCCF1092830380E0C8CF82E08093830368
:1033B00088E3DCDCF4CF8C2FD9DC81E0BFCFCF9366
:1033C000DF93EB0186319C4701F50E941B109D8124
:1033D000992391F08A7A91E009F490E09093840324
:1033E000811108C089E2ACD50E94A31080E0DF9172
:1033F000CF91089585E3F7CF80918403811103C0B5
:1034000089E2A4D5F1CF85E3FCCF81E0F0CFCF9363
:10341000DF93EC01FB018581882309F4CEC09E0176
:1034200030572332310508F0AEC087EA93E00E949E
:103430003911FE01E150F047E232F10520F4E25E7D
:10344000F64D0C946E288091A70381608093A703AA
:1034500093C08091A80388608093A8038DC0809159
:10346000A7038260F3CF8091A7038460EFCF8091A0
:10347000A7038860EBCF8091A8038160EDCF809196
:10348000A8038260E9CF8091A7038061DFCF80919C
:10349000A7038062DBCF8091A7038064D7CF0E940F
:1034A000E90B8091A7038068D1CF8091A7038C603E
:1034B000CDCF8091A8038360CFCF8091A7038E7F6B
:1034C000C5CF8091A803877FC7CF8091A7038D7F49
:1034D000BDCF8091A7038B7FB9CF8091A703877F52
:1034E000B5CF8091A8038E7FB7CF8091A8038D7F41
:1034F000B3CF8091A7038F7EA9CF8091A7038F7D43
:10350000A5CF8091A7038F7BA1CF0E94E90B80916B
:10351000A7038F779BCF8091A703837F97CF80915D
:10352000A8038C7F99CF8091A70382FB992790F9FC
:1035300021E0922790FB82F990FB83F987CF80915D
:10354000A803982F909591708E7F892B90FB81F91D
:1035500083CF9091A703892F8F7B96FF806476CFCE
:103560000E94E90B9091A703892F97FB87F9805858
:103570006DCF81E00E943D1187EA93E00E943B11EC
:103580000E94E90B80E0DF91CF91089580E0F2CFB7
:103590009091A703892F8F7E94FF806157CF9091E0
:1035A000A703892F8E7F90FF816050CF9091A80351
:1035B000892F877F93FF88604FCF81E0E4CF282F4A
:1035C00035EB2303C001112497FF04C080589109F3
:1035D000892F089580589F4FFBCF80918B0380FFE8
:1035E0000DC06091070170E0660F771F60387105AC
:1035F00070F56115710569F1862F089581FF07C087
:103600006091070184E0689FB0011124EFCF6091C1
:10361000070182FD0AC080918A038823A9F02091C6
:10362000060160910701821710F088E0ECCF869FB9
:10363000C001112433E0880F991F3A95E1F7622FFA
:1036400070E00E945B28D2CF68E070E0D5CF8FE7B2
:10365000089581E0089580918B0380FF0CC06091F4
:10366000030170E07595679575956795611571050E
:1036700049F1862F089581FF06C06091030170E033
:1036800075956795F3CF6091030182FD0BC0909112
:1036900089039923A1F0609102018091030196179B
:1036A00038F0682F70E06038710500F38FE70895F7
:1036B000899FC001112470E00E945B28F4CF61E073
:1036C00070E0D7CF81E008958D3C29F486DF8195A5
:1036D00080938F0308958E3C11F47FDFF9CF8F3CE8
:1036E00029F47BDF819580938E030895803D11F44A
:1036F00074DFF9CF893D21F4AEDF80939003089504
:103700008A3D19F4A8DF8195F8CF8B3D29F4A3DF1A
:1037100081958093910308958C3D11F49CDFF9CF3E
:103720009FE2980F983070F4815D990B21E030E0B2
:1037300001C0220F8A95EAF780918D03822B809336
:103740008D0308958D3D31F480918B0381608093CA
:103750008B0308958E3D21F480918B038260F7CF17
:103760008F3DB9F780918B038460F1CF40918E0338
:103770008D3C59F480918F0387FF0DC010928F0309
:1037800041110BC010928A0308C08E3C81F48091D5
:103790008F0318169CF3442381F08091900390913D
:1037A0009103892B09F05AC01092890308958F3C28
:1037B00049F447FFF0CF10928E0380918F0381115F
:1037C000ECCFE0CF803D19F41416ACF3E4CF909128
:1037D0009003893D29F41916F4F610929003DBCF7B
:1037E0008A3D19F497FFD7CFF8CF909191038B3D85
:1037F00029F497FFD0CF10929103CDCF8C3D19F4CF
:103800001916CCF3C8CF9FE2980F983090F4815DE1
:10381000990B21E030E0B90102C0660F771F8A954D
:10382000E2F7CB01809590918D03892380938D03DE
:10383000B2CF8D3D31F480918B038E7F80938B03CB
:10384000AACF8E3D21F480918B038D7FF7CF8F3DE2
:1038500009F0A1CF80918B038B7FF0CF08958091E9
:103860007A0383FF96C085EA9AE09F938F930E9424
:103870002C0780918D031F928F9380EA9AE09F938B
:103880008F930E942C078EE99AE09F938F930E945A
:103890002C0780918E03282F082E000C330B3F93AA
:1038A0008F938BE99AE09F938F930E942C0789E96D
:1038B0009AE09F938F930E942C0780918F03282F6B
:1038C000082E000C330B3F938F9386E99AE09F9369
:1038D0008F930E942C0784E99AE09F938F930E9414
:1038E0002C0780919003282F082E000C330B3F9358
:1038F0008F9381E99AE09F938F930E942C078FE822
:103900009AE09F938F930E942C0780919103282F18
:10391000082E000C330B3F938F938CE89AE09F9313
:103920008F930E942C0789E89AE09F938F930E94BF
:103930002C078DB79EB780960FB6F8949EBF0FBE2A
:103940008DBF80918A031F928F9386E89AE09F93A0
:103950008F930E942C0784E89AE09F938F930E9494
:103960002C0780918B031F928F9381E89AE09F939D
:103970008F930E942C078EE79AE09F938F930E946B
:103980002C078DB79EB70C960FB6F8949EBF0FBE4E
:103990008DBF01D49C0190918E0380918F03982B51
:1039A00021F03093880320938703909190038091B6
:1039B0009103982B21F030938603209385038CE8A4
:1039C00093E00EC286E0ECE8F3E0DF011D928A95F9
:1039D000E9F710928A031092890310928B030895DD
:1039E000FC01828181110EC0838181110BC0848111
:1039F000811108C091E08581811101C090E0892F7B
:103A00008170089581E0FCCFA6E0B0E0EAE0FDE13E
:103A10000C94832886E0ECE8F3E0DE011196019037
:103A20000D928A95E1F710928E0310928F031092F7
:103A30009003109291038B819C81892B81F080915E
:103A400087039091880338D3AC0190918A0399231E
:103A5000A9F1809108018417150608F43CC08D81F6
:103A60009E81892B89F0809185039091860324D3D0
:103A7000AC0190918903992309F463C080910401FA
:103A80008417150608F46BC0BE016F5F7F4F8CE88A
:103A900093E06DD2811104C08CE893E0A1DF811125
:103AA000DEDE86E0FE013196ACE8B3E001900D92D7
:103AB0008A95E1F72696E3E00C949F28209109016E
:103AC0008AE0289F900111242417350740F69F5F54
:103AD00090938A0302C09F3FD1F71B81112351F0BD
:103AE0007CDD9FEF11160CF491E0899F802D11244D
:103AF00080938E031C81112351F06FDD9FEF11160F
:103B00000CF491E0899F802D112480938F03809184
:103B10008E03882309F4A3CF10918F03112309F496
:103B20009ECF4DDD882349F080938E03812F47DDA2
:103B3000882329F080938F0392CF81E0F5CF81E035
:103B4000F9CF209105018AE0289F900111242417C4
:103B5000350708F099CF9F5F9093890302C09F3F7C
:103B6000D1F71D81112351F076DD9FEF11160CF472
:103B700091E0899F802D1124809390031E81112351
:103B800051F069DD9FEF11160CF491E0899F802DB3
:103B900011248093910380919003882309F474CFBA
:103BA00010919103112309F46FCF09DD882349F0A7
:103BB00080939003812F03DD882329F08093910364
:103BC00063CF81E0F5CF81E0F9CF0F931F93CF93BF
:103BD000DF93C42FD22FFC0185818823C1F040934D
:103BE0009403D9D2909393038093920380E28C0F35
:103BF000883040F4C77081E001C0880FCA95EAF7A9
:103C00000E94D509DF91CF911F910F9108951091D6
:103C10009403141331C080919203909193034CD27A
:103C2000883C910548F5C0E2CD0F1D17B9F080E240
:103C3000810F883040F4177081E001C0880F1A9519
:103C4000EAF70E94DA09C83048F481E09D2F9770A6
:103C500001C0880F9A95EAF70E94D509802F0E942B
:103C6000CE09C83078F6D77081E001C0880FDA95A8
:103C7000EAF70E94DA09C6CF80E28C0F883010F68E
:103C8000C77081E001C0880FCA95EAF7F2CF0F93A1
:103C9000DB0188519C478730910598F5FC01E05C79
:103CA000F64D0C946E2806E221EE41EE6AE17CE7C7
:103CB000CD018BDF80E00F91089507E225EE45EE00
:103CC0006BE17CE7F5CF06E221EE40EE68E17CE7B0
:103CD000EFCF07E225EE44EE69E17CE7E9CF06E2AB
:103CE00021EE42EE6CE17CE7E3CF07E225EE46EE03
:103CF0006DE17CE7DDCF08E221E045EE6EE17CE797
:103D0000D7CF15968C91882319F010929403D3CFB6
:103D100081E0D1CF90939A03809399030895E09125
:103D20009903F0919A03309739F00190F081E02DDA
:103D3000309711F00995089580E00895F0CF089527
:103D4000EF92FF920F931F93CF93DF93EC01E091DB
:103D50009903F0919A033097F1F10280F381E02DFD
:103D60003097C9F1099580917A0382FF34C080FFB2
:103D70000DC088811F928F9380ED9AE09F938F935F
:103D80000E942C070F900F900F900F907E0186E0FD
:103D9000E80EF11C0AEC1AE080917A0380FF0BC058
:103DA0008A811F928F931F930F930E942C070F906D
:103DB0000F900F900F902196CE15DF0569F7809137
:103DC0007A0380FF08C088EC9AE09F938F930E944B
:103DD0002C070F900F90CDB7DEB7E6E00C949C282F
:103DE000E0919903F0919A03309759F02681378139
:103DF000232B39F022E0DC012C930680F781E02DA3
:103E000009950895A3E0B0E0E8E0FFE10C94842870
:103E1000209197033091980328173907B1F09093B8
:103E2000980380939703E0919903F0919A03309758
:103E300061F00084F185E02D309739F023E029838B
:103E40009B838A83CE01019609952396E2E00C9428
:103E5000A028A3E0B0E0EFE2FFE10C9484282091D9
:103E600095033091960328173907B1F09093960384
:103E700080939503E0919903F0919A03309761F054
:103E80000084F185E02D309739F024E029839B836D
:103E90008A83CE01019609952396E2E00C94A0282E
:103EA00040910001509101019A012E5F3F4F485F00
:103EB0005F4F80E02417350709F40895F9019191C7
:103EC0009F019923B9F38F5FF5CF882371F020917B
:103ED000000130910101F9013296285F3F4F919125
:103EE000981729F0E217F307D1F780E0089581E0F1
:103EF00008959C01FC0132969FEF80E041914617A6
:103F000051F09F3F19F4411101C0982F8F5F863007
:103F1000A9F79F3F09F40895290F311D97FD3A95A0
:103F2000F90162830895FC013296089621912613C7
:103F300003C0DF0111971C92E817F907B9F708953C
:103F4000682F8091000190910101D3CF682F80915B
:103F5000000190910101E7CFE0910001F091010192
:103F6000329686E0DF011D928A95E9F70895DC011B
:103F7000FB0111969C9111978181981322C0129692
:103F80008C911297882319F0928189131AC0139685
:103F90008C911397882319F09381891312C0159679
:103FA0008C911597882319F0958189130AC014966E
:103FB0009C91992321F081E02481291303C080E0A2
:103FC00001C081E0817008950895FECF08958111A8
:103FD0000CC081E080930D0160910A0170910B018A
:103FE00080910C0190910D01F0CF82E0F3CF83E03E
:103FF00080930D0160910A0170910B0180910C0179
:1040000090910D01E2CFE3CF089581E080930D01FF
:1040100060910A0170910B0180910C0190910D014A
:10402000D4CFF3CF089591E0811101C090E0909337
:104030000C0160910A0170910B0180910C0190912B
:104040000D01C3CF80910C01089580930B01609105
:104050000A0170910B0180910C0190910D01B5CF77
:1040600080910B01089580930A0160910A0170917B
:104070000B0180910C0190910D01A7CF80910A0155
:10408000089508950895FECF089508950895F9CFED
:104090000895CF93FADF0E940116F8DFC0E08C2F5D
:1040A0000E94EF14892B31F4CF5FC530C1F780E057
:1040B000CF91089581E0FCCFCF93DF93EC016BD0DB
:1040C0008C1B9D0BDF91CF91089585B7806885BFCC
:1040D00085B7806885BF08951F921FB61F9211246F
:1040E0008F939F93AF93BF9380919B03811113C0D4
:1040F0008091BD039091BE03A091BF03B091C00316
:104100004196A11DB11D8093BD039093BE03A09362
:10411000BF03B093C003BF91AF919F918F911F9048
:104120001FBE1F9018958091C503843031F10E9405
:10413000320810929B0388E190E020E40FB6F894D7
:10414000A895809360000FBE2093600083B7817FA5
:10415000846083BF83B7816083BF7894889583B779
:104160008E7F83BF0FB6F894A89580916000886118
:1041700080936000109260000FBE08950E94E90BCA
:104180000C94360882E084BD93E095BD9AEF97BD0C
:1041900080936E0008952FB7F8948091BD0390919D
:1041A000BE03A091BF03B091C0032FBF08952FB7E6
:1041B000F8946091BD037091BE038091BF0390910C
:1041C000C0032FBF089578941F921FB61F92112429
:1041D0008F939F93AF93BF938091BD039091BE0344
:1041E000A091BF03B091C0030196A11DB11D8093A2
:1041F000BD039093BE03A093BF03B093C003BF91D0
:10420000AF919F918F911F901FBE1F90189581E0D5
:104210008093E00080E28093D8001092C9008FE183
:104220009EE40197F1F700C0000087E090EBDC010D
:104230008093CE039093CF03A093D003B093D10388
:1042400088E19CE00FB6F894A895809360000FBEBB
:1042500090936000FFCF88E19CE00FB6F894A8959A
:10426000809360000FBE90936000FFCF08959B0184
:10427000BA019091C5039430E1F48F708093E90006
:104280009FEF8091E800915085FD06C085ED8A95ED
:10429000F1F700009111F5CF8091E80085FF09C08A
:1042A00050E040E0C90192D28091E8008E7780937F
:1042B000E800089543E050E0BC0182E0D8CF46E03A
:1042C00050E0BC0182E0D3CFCF93DF93EC01BADEA4
:1042D00048E050E0BE0181E0CADF88E0FE01AFE9BE
:1042E000B3E001900D928A95E1F7DF91CF910895A7
:1042F00008958FE09BE09F938F930E942C078091FD
:10430000C4030F900F90811107C0EED345D4809164
:10431000E20084608093E20008958BE09BE09F932D
:104320008F930E942C071092C4030F900F90089552
:1043300087E09BE09F938F930E942C0766DE81E0CD
:1043400072DE0F900F90089583E09BE09F938F9310
:104350000E942C076091C10381E0611101C080E0DF
:1043600046DE0F900F9008958FEF9AE09F938F9302
:104370000E942C079091C50381E0943009F080E001
:104380006091C10340DE0F900F90089520919D032E
:104390002F5F822F62E383D6992319F020939D0328
:1043A000089510929D0380919E038823F1F08091DF
:1043B000C5038430C1F49091E9009F702091EC0016
:1043C000822F817020FD80E8892B93E09093E90093
:1043D0009091EB0090FF04C09091EE0097FD08C013
:1043E0008F708093E90010929E0308951092F1005F
:1043F0009091E80095FDFACF9091E80090FFF0CF02
:104400009091E8009E779093E800EACF42E061EC5B
:1044100081E0E6D242E261EC82E0E2D242E261EC8B
:1044200083E0DED29091C50381E0943009F080E012
:104430006091C103CCCD8091C703833009F45EC085
:1044400030F48130C1F1823009F494C008958A308B
:1044500009F483C08B3009F46BC0893009F04DC07A
:104460008091C603813209F048C08091CA039091BF
:10447000CB03029708F041C08091E800877F8093CA
:10448000E8008091E80082FF34C09091F3008091B1
:10449000F200029731F48091F100813011F0863002
:1044A00019F48091F100D1DD8091E8008B77809341
:1044B000E800CAD222C08091C603813AF1F480910B
:1044C000E800877F8093E8008091CA039091CB0336
:1044D000892B59F468E08FE993E070E0C4D18091B2
:1044E000E8008B778093E800089560E090E080E03A
:1044F000F4CF8091C5038111C4CF08958091C60384
:10450000813AD9F78091CA039091CB03892BA9F7FF
:104510008091E800877F8093E8008091E80080FF29
:10452000FCCF90DD8093F1008091E8008E77BFCFC3
:104530008091C603813209F78091CA039091CB0321
:10454000892BD9F68091E800877F8093E8007CD2A0
:104550008091C80368DD0C94E90B8091C603813219
:1045600061F68091E800877F8093E8006DD28091AA
:10457000C90379CD8091C603813A09F0BECF8091FD
:10458000E800877F8093E8008091E80080FFFCCFFF
:1045900075DDC8CF9FB7F89410929E039FBF90918E
:1045A000C503943009F048C02091E9002F70309184
:1045B000EC00932F917030FD90E8922B23E0209334
:1045C000E9002091EB0020FF34C02091EE0027FF8E
:1045D00030C020919C03222321F02091E80025FF88
:1045E00028C010929C0326E03091E80035FF14C0EB
:1045F0008093F1008091E80085FD27C08091E8005C
:1046000080FFFCCF8091E8008E778093E8009F7058
:104610009093E90080E008953091C503343049F467
:104620003091EB0035FD05C0215041F481E08093CD
:104630009C039F709093E9008FEF0895EFE9FFE0EE
:104640003197F1F700C00000CFCF8FB7F89421E089
:1046500020939E038FBFDBCF84B7877F84BF0FB6C5
:10466000F894A89580916000886180936000109212
:1046700060000FBE80E890E00FB6F8948093610070
:10468000909361000FBECDCC2FD286D2E2EEF0E047
:104690008081846080837894E8C48EE091E03ACB96
:1046A0008091C503853089F480917A0380FF08C02A
:1046B00089EE9AE09F938F930E942C070F900F90A2
:1046C0008091C503853011F059CD08952CDDE1DCD2
:1046D0008823B1F38091C303882391F361D00E94B2
:1046E000E90BEECF08959A014091CC035091CD0390
:1046F00000C0492F55274330510521F168F441305E
:10470000510509F443C04230510509F444C090E01A
:1047100080E050E040E026C04132510551F1423284
:104720005105A9F76330710590F7FB01EE0FFF1FEC
:10473000E153FD4F4081518164537D4FFB018081E6
:1047400090E010C099278130910581F0009729F001
:104750000297E9F6E3E1FBE002C0EDE5FBE08491BE
:1047600090E0AF01F901518340830895E1E3FBE05C
:10477000F6CF6330710558F6660F771FFB01EB52D9
:10478000FD4F4081518189E090E0ECCF82E190E0E3
:1047900045EB5BE0E7CF84E590E041E65BE0E2CF0C
:1047A00080E189BD82E189BD09B400FEFDCF809121
:1047B000D8008F7D8093D8008091E0008260809344
:1047C000E0008091E00081FDFCCF0895AF92BF92A0
:1047D000CF92DF92FF920F931F93CF93DF936C01E1
:1047E000EB018A0150D1F82E811123C0011511056A
:1047F00039F0F80180819181C81BD90BC80ED91EF0
:10480000B12CA12C2097A9F08091E80085FD21C052
:104810008091E8008E778093E80001151105A1F0E2
:10482000F80180819181A80EB91EB182A08285E035
:10483000F82E8F2DDF91CF911F910F91FF90DF9078
:10484000CF90BF90AF9008951ED18823D9F2F82E53
:10485000F0CFF60181916F018093F1002197FFEF76
:10486000AF1ABF0ACFCFFC018091CC039091CD034A
:1048700086179707A0F06115710529F49091E8005B
:104880009E779093E80090E06115710551F49111C5
:1048900008C08091E80082FF34C080E00895BC0128
:1048A000F2CF8091C5038823C1F18530C1F1809199
:1048B000E80083FD30C08091E80082FDEACF80915E
:1048C000E80080FFE1CF8091F3002091F200382FC3
:1048D0006115710519F02830310558F091E0283044
:1048E000310509F090E02091E8002E772093E80050
:1048F000CBCF81918093F100615071092F5F3F4FC1
:10490000E7CF8091C503882341F0853041F0809145
:10491000E80083FFBECF81E0089582E0089583E040
:104920000895FC018091CC039091CD0386179707E1
:10493000A0F06115710529F48091E8008E778093CD
:10494000E80090E06115710551F4911108C0809163
:10495000E80082FF35C080E00895BC01F2CF80916D
:10496000C5038823C9F18530C9F18091E80083FD32
:1049700031C08091E80082FDEACF8091E80080FF9D
:10498000E1CF8091F3002091F200382F611571057D
:1049900019F02830310558F091E02830310509F040
:1049A00090E08091E8008E778093E800CBCF8491EF
:1049B0008093F1003196615071092F5F3F4FE6CF30
:1049C0008091C503882341F0853041F08091E80053
:1049D00083FFBDCF81E0089582E0089583E00895CC
:1049E000982F973028F08F708093E90081E0089528
:1049F0009093E900242F762F50E0981731F07091B2
:104A0000EC002091ED005091F00021FD02C09F5F6D
:104A1000E8CF3091EB003E7F3093EB003091ED001A
:104A20003D7F3093ED003091EB0031603093EB002F
:104A30007093EC002093ED005093F0002091EE0075
:104A400027FDE5CF80E008958091C60387FF13C05E
:104A50008091E80082FF06C08091E8008B77809308
:104A6000E80004C08091C5038111F2CF08958091C0
:104A7000C5038823D9F38091E80080FFF8CF8091A7
:104A8000E8008E77ECCF2091E4003091E50095E6C8
:104A9000A9012091EC00822F817020FF06C0809137
:104AA000E80080FF06C080E008952091E80022FD24
:104AB0001AC08091C503882389F0853089F08091E0
:104AC000EB0085FD0FC02091E4003091E500421716
:104AD0005307F9F29150E1F684E0089582E00895D9
:104AE00083E0089581E0089567D06ED0E0EEF0E0B5
:104AF000808181608083E8EDF0E080818F77808322
:104B000019BCA7EDB0E08C918E7F8C9380818F7E55
:104B100080831092C40308950F931F93CF93DF9364
:104B20004BD052D0C8EDD0E088818F7788838881C0
:104B30008068888388818F7D888319BC1092C50323
:104B40001092C1031092C3031092C20300EE10E052
:104B5000F80180818B7F808388818160888342E037
:104B600060E080E03DDFE1EEF0E080818E7F8083D9
:104B7000E2EEF0E0808181608083808188608083C4
:104B8000F80180818E7F8083888180618883DF91B6
:104B9000CF911F910F910895E8EDF0E080818F7E15
:104BA0008083E7EDF0E080818160808384E082BFD4
:104BB00081E08093C403B0CFE8EDF0E080818E7F88
:104BC00080831092E20008951092DA001092E100C2
:104BD00008951F920F920FB60F9211242F933F93B7
:104BE0004F935F936F937F938F939F93AF93BF93F5
:104BF000EF93FF938091E10082FF0AC08091E20071
:104C000082FF06C08091E1008B7F8093E100BEDBD4
:104C10008091DA0080FF18C08091D80080FF14C016
:104C20008091DA008E7F8093DA008091D90080FF36
:104C300091C080E189BD82E189BD09B400FEFDCF4C
:104C400081E08093C50355DB8091E10080FF18C0AF
:104C50008091E20080FF14C08091E2008E7F8093FB
:104C6000E2008091E20080618093E2008091D800B0
:104C700080628093D80019BC85E08093C50364DB13
:104C80008091E10084FF2AC08091E20084FF26C069
:104C900080E189BD82E189BD89B5982F917080FF3F
:104CA000FBCF8091D8008F7D8093D8008091E10068
:104CB0008F7E8093E1008091E2008F7E8093E200FE
:104CC0008091E20081608093E2008091C10388239B
:104CD00009F445C084E08093C50346DB8091E10080
:104CE00083FF27C08091E20083FF23C08091E10011
:104CF000877F8093E10082E08093C5031092C10317
:104D00008091E1008E7F8093E1008091E2008E7FB0
:104D10008093E2008091E20080618093E20042E0B3
:104D200060E080E05DDE8091F00088608093F000BC
:104D3000FFDAFF91EF91BF91AF919F918F917F919A
:104D40006F915F914F913F912F910F900FBE0F90F8
:104D50001F90189519BC1092C503DFDA75CF8091AA
:104D6000E30087FD93E09093C503B7CF1F920F92A6
:104D70000FB60F9211242F933F934F935F936F932E
:104D80007F938F939F93AF93BF93CF93DF93EF93D3
:104D9000FF93D091E900DF708091EC00C82FC170C3
:104DA00080FDC0E81092E9008091F000877F809339
:104DB000F00078941ED01092E9008091F000886095
:104DC0008093F000CD2BCF70C093E900FF91EF915D
:104DD000DF91CF91BF91AF919F918F917F916F9113
:104DE0005F914F913F912F910F900FBE0F901F90A9
:104DF0001895AAE2B0E0EEEFF6E285C186EC93E00A
:104E00002091F100FC012193CF01F3E08E3C9F073C
:104E1000B9F711DB8091E80083FF16C18091C603CA
:104E20009091C7039A3008F00FC1E92FF0E0E95BD9
:104E3000F64D54C1803899F0823809F005C180914F
:104E4000CA038F70873008F0FFC08093E90080911B
:104E5000EB0085FB882780F91092E90006C080915D
:104E6000C2039091C303911182609091E800977FF3
:104E70009093E8008093F1001092F1008091E80097
:104E80008E77DFC0882309F4CDC0823009F0DCC002
:104E90008091C8038111D0C08091CA038F702FEF19
:104EA000280F263008F0D0C08093E9002091EB0055
:104EB00020FFC2C0933031F48091EB008062809378
:104EC000EB00BAC09091EB0090619093EB0021E071
:104ED00030E001C0220F8A95EAF72093EA00109291
:104EE000EA008091EB008860EACF8111ADC010919B
:104EF000C8031F778091E3008078812B8093E300C3
:104F00008091E800877F8093E8009EDD8091E80033
:104F100080FFFCCF8091E30080688093E30082E013
:104F2000111183E08093C5038FC08058823008F050
:104F30008BC08091C8039091C9038C3D23E09207F8
:104F400099F583E08A838AE289834FB7F894DE017A
:104F5000139620E03EE051E2E32FF0E0509357003B
:104F6000E49120FF03C0E295EF703F5FEF708E2F5A
:104F700090E0EA30B8F0C7968D939D932F5F24316F
:104F800059F74FBF8091E800877F8093E8006AE27D
:104F900070E0CE01019667DC8091E8008B7780930A
:104FA000E80052C0C096E8CF6091CA037091CB036D
:104FB000AE014F5F5F4F97DBBC01892B09F444C002
:104FC0009091E800977F9093E80089819A81A9DC0D
:104FD000E3CF8038C9F58091E800877F8093E800AF
:104FE0008091C1038093F10049CF81112DC0909130
:104FF000C803923048F58091E800877F8093E800ED
:105000009093C10321DD8091C103882311F084E0D6
:1050100005C08091E30087FDFACF81E08093C5034E
:10502000F5D912C08091C803813071F481E09330CA
:1050300009F080E08093C3031092E9008091E800BA
:10504000877F8093E80000DD8091E80083FF0AC03D
:105050008091E800877F8093E8008091EB00806278
:105060008093EB00AA96E3E06AC0CF938091C503DA
:10507000882399F0C091E900CF709091EC00892FBE
:10508000817090FD80E8C82B1092E9008091E800C3
:1050900083FDAFDECF70C093E900CF910895991BD7
:1050A00079E004C0991F961708F0961B881F7A951F
:1050B000C9F78095089597FB072E16F4009406D043
:1050C00077FD08D048D007FC05D03EF49095819537
:1050D0009F4F0895709561957F4F0895EE0FFF1FC4
:1050E0000590F491E02D09942F923F924F925F9298
:1050F0006F927F928F929F92AF92BF92CF92DF92E8
:10510000EF92FF920F931F93CF93DF93CDB7DEB74C
:10511000CA1BDB0B0FB6F894DEBF0FBECDBF0994E0
:105120002A88398848885F846E847D848C849B8437
:10513000AA84B984C884DF80EE80FD800C811B8145
:10514000AA81B981CE0FD11D0FB6F894DEBF0FBE74
:10515000CDBFED010895AA1BBB1B51E107C0AA1FDB
:10516000BB1FA617B70710F0A61BB70B881F991F08
:105170005A95A9F780959095BC01CD010895FB0142
:10518000DC0104C08D910190801921F44150504000
:10519000C8F7881B990B0895FB01DC0102C0019040
:1051A0000D9241505040D8F70895F999FECF92BD25
:1051B00081BDF89A992780B50895A8E1B0E042E052
:1051C00050E020C0262FF999FECF92BD81BDF89AFC
:1051D000019700B4021639F01FBA20BD0FB6F8943B
:1051E000FA9AF99A0FBE08950396272FECDFEADFAB
:1051F000252FE9DF242FE7CF0196272FE4DFE2CF29
:10520000DC01CB01FC01F999FECF06C0F2BDE1BD86
:10521000F89A319600B40D9241505040B8F7089575
:10522000F894FFCF1D0A1D0A530A530AAC0AC80A94
:10523000450A450ACC0A350B410B410B5D1ACF1AC2
:10524000651A2F1A331A691A371A6D1A791A431AFE
:10525000C81A471A7D1A4B1A811AA91A4F1A851AA9
:10526000B01A551A8B1A931A3B1A711A3F1A751AEB
:10527000591A8F1A9F1AB91AC61A291A611AD61AF8
:10528000631E691E531E5D1E6F1E751E7B1E1A2730
:105290004227242842272428752795272428E927F0
:0252A000F527F0
:1052A2005C03280850011E0A14010000010030208E
:1052B200642136215F215A21E200E900EA00B500AB
:1052C200B600B700CD008301CC008A01920194019F
:1052D2002102230224022502260227022A02B30007
:1052E200B4006F0070009F01CB019F02A002818277
:1052F20083E200E900EA00B500B600B700CD008302
:1053020001CC008A01920194012102230224022588
:1053120002260227022A02B300B4006F0070009F27
:1053220001CB019F02A002818283F0F1F4F5F6F72E
:1053320067663696949392919030C69534353F3F86
:105342003F006D6B5F64656C6179006D6B5F696EC8
:1053520074657276616C006D6B5F6D61785F7370FE
:10536200656564006D6B5F74696D655F746F5F6D19
:105372006178006D6B5F776865656C5F6D61785F02
:105382007370656564006D6B5F776865656C5F74EB
:10539200696D655F746F5F6D6178000A092D205633
:1053A200657273696F6E202D0A5649443A2030782F
:1053B200373237322822526F6D696E526F6E696EC4
:1053C2002043616E64794B657973222920504944E8
:1053D2003A2030784630334228224B6174616E6144
:1053E200363020726576322229205645523A2030D4
:1053F20078303030310A4255494C443A2020285303
:1054020065702032372032303235290A4F505449E4
:105412004F4E533A204C554641204D4F5553454B24
:1054220045592045585452414B455920434F4E53FC
:105432004F4C4520434F4D4D414E44203430393678
:105442000A4743433A20382E332E30204156522DFC
:105452004C4942433A20322E302E30204156525F80
:10546200415243483A20617672350A00447B15570F
:0C5472000CDC0BC70B730B8C0BA50B00A4
:00000001FF
