:100000000C944D060C9485060C9485060C9485067C
:100010000C9485060C9485060C9485060C94850634
:100020000C9485060C9485060C9465270C9439284D
:100030000C94A3210C9485060C9485060C948506DB
:100040000C9485060C9485060C9485060C94850604
:100050000C9485060C942A220C9485060C94850633
:100060000C9485060C9485060C9485060C948506E4
:100070000C9485060C9485060C9485060C948506D4
:100080000C9485060C9485060C9485060C948506C4
:100090000C9485060C9485060C9485060C948506B4
:1000A0000C9485060C9485060C9485062900350071
:1000B0001E001F00200021002200625223002400A5
:1000C0002500260027002D002E002B001A000F000F
:1000D0001C00130005004600000030001D00090050
:1000E0001200180033004C002A000600150016000C
:1000F00017220A004C0000004B00100011320800CB
:100100000C0004003400E10014000D001900070089
:100110000E004A004D004E001B000B003600370059
:100120003800E500E3003900E20028422C210000FD
:1001300000000007000028442352500051005200E4
:100140004F00290035001E001F0020002100220062
:100150000100230024002500260027002D002E008A
:100160002B0014001A000800150017002F000000D3
:1001700030001C0018000C00120013003100390080
:1001800004001600070009000A004C0000004B00A4
:100190000B000D000E000F0033002800E1001D00D1
:1001A0001B000600190005004A004D004E0011001A
:1001B0001000360037003800E500E000E300E20000
:1001C00025522C0000000000000000002A002552EB
:1001D0005000510052004F000100010001000100D9
:1001E0000100010001000100010001000100010007
:1001F00001000100010001004200430044004500ED
:10020000010001000000010001002400250026007B
:100210000100010001003E003F00400041000100DC
:100220000100000001000100210022002300010064
:10023000010001003A003B003C003D003801010094
:100240000100010001001E001F002000010001004C
:100250000100010001000100010000000000620037
:10026000000001002700010001000100E30001007F
:100270000100010001000100010001000100010076
:100280000100010001000100010001000100010066
:100290000100010001000100010000000100010057
:1002A0002F0030002D0001000100010001000100BD
:1002B0000100010001000100000001000100260210
:1002C00027022E0037023500010001000100010065
:1002D0000100010001000100010001002F023002B5
:1002E00001003100010001000100010001000100D6
:1002F00000000000010000004C00010001000100AE
:1003000001000100010001000100010001000100E5
:1003100001000100010001000100010001000100D5
:10032000DD0001000100D900CD00DA00010001006C
:100330000000010001004B0052004E000100DE00F1
:100340000100DB00CF00CE00D000DC000100000087
:1003500001005001500051004F004F01DF0001002B
:100360000100010001000100010001000100010085
:1003700001004A0049004D00010001000100010098
:10038000D300D200D10000000000010000000100F5
:1003900001000100010001000100000000003A001E
:1003A0003B003C003D003E0000003F00400041009B
:1003B000420043004400450000000000000000002F
:1003C000000000000000000000000000000000002D
:1003D000000000000000000000000000000000001D
:1003E000000000000000000000000000000000000D
:1003F00000000000000000000000000000000000FD
:1004000000000000000000000000000000000000EC
:1004100000000000000000000100000000000000DB
:1004200000000000000001000000000000000000CB
:1004300044454255473A2064697361626C65642E95
:100440000A0044454255473A20656E61626C656416
:100450002E0A006C65645F7461736B3A202530323C
:10046000580A004F6E6573686F743A20616374694F
:1004700076653A2025640A000A002530313662008C
:100480003A200025303258000A722F632030313272
:10049000333435363738394142434445460A003112
:1004A0003A0964656C6179282A31306D73293A20E4
:1004B00025750A323A09696E74657276616C286D29
:1004C00073293A2025750A333A096D61785F737094
:1004D0006565643A2025750A343A0974696D655F6B
:1004E000746F5F6D61783A2025750A353A0977682F
:1004F00065656C5F6D61785F73706565643A202532
:10050000750A363A09776865656C5F74696D655F71
:10051000746F5F6D61783A2025750A00703A097032
:1005200072696E742076616C7565730A643A09733A
:1005300065742064656661756C74730A75703A0938
:100540002B310A646E3A092D310A6C743A092B3149
:10055000300A72743A092D31300A4553432F713AEB
:1005600009717569740A0A7370656564203D2064B9
:10057000656C7461202A206D61785F7370656564B5
:10058000202A2028726570656174202F2074696D9F
:10059000655F746F5F6D6178290A776865726520A1
:1005A00064656C74613A20637572736F723D256483
:1005B0002C20776865656C3D25640A536565206865
:1005C0007474703A2F2F656E2E77696B697065644D
:1005D00069612E6F72672F77696B692F4D6F757325
:1005E000655F6B6579730A004D3E20004D25753AB5
:1005F00025733E20003F0A003D2025750A003F0A72
:100600000064656661756C74730A0025750A003FA5
:100610000A000A092D2056616C756573202D0A00A9
:10062000710A000A092D204D6F7573656B6579207D
:100630002D0A003F00433E20004C25640A000A09B1
:100640002D20537461747573202D0A686F73745F65
:100650006B6579626F6172645F6C65647328293AB7
:1006600020253032580A6B6579626F6172645F7061
:10067000726F746F636F6C3A20253032580A6B6565
:1006800079626F6172645F69646C653A202530320B
:10069000580A74696D65725F726561643332282926
:1006A0003A202530386C580A002573000A092D209D
:1006B000436F6E736F6C65202D0A4553432F713A5B
:1006C00009717569740A6D3A096D6F7573656B65AB
:1006D000790A000A092D204D61676963202D0A44BB
:1006E0003A094465627567204D65737361676520DB
:1006F000546F67676C650A583A094D61747269787E
:10070000204465627567204D6F646520546F67678C
:100710006C65202D2053686F77206B65797072654A
:100720007373657320696E206D61747269782067D8
:100730007269640A4B3A094B6579626F6172642091
:10074000446562756720546F67676C65202D205380
:10075000686F77206B65797072657373207265704E
:100760006F72740A4D3A094465627567204D6F7562
:10077000736520546F67676C650A563A095665724F
:1007800073696F6E0A533A095374617475730A433F
:100790003A09416374697661746520436F6E736FC3
:1007A0006C65204D6F64650A46312D4631303A093B
:1007B00053776974636820746F204C617965722087
:1007C000302D392028463130203D204C30290A3048
:1007D0002D393A0953776974636820746F204C612E
:1007E00079657220302D390A47524156453A0953EE
:1007F000776974636820746F204C6179657220306A
:100800002028616C7465726E617465290A423A0928
:100810004A756D7020746F20426F6F746C6F6164E5
:1008200065720A4553433A094A756D7020746F200A
:10083000426F6F746C6F616465722028616C7465BF
:10084000726E617465290A453A095072696E7420A6
:10085000454550524F4D2053657474696E67730A55
:100860004241434B53504143453A09436C656172E1
:1008700020454550524F4D0A006B65796D61705FA0
:10088000636F6E6669672E7261773A202530325841
:100890000A2E737761705F636F6E74726F6C5F6343
:1008A0006170736C6F636B3A2025750A2E636170FB
:1008B000736C6F636B5F746F5F636F6E74726F6C7A
:1008C0003A2025750A2E737761705F6C63746C5FD4
:1008D0006C6775693A2025750A2E737761705F72AF
:1008E00063746C5F726775693A2025750A2E737799
:1008F00061705F6C616C745F6C6775693A20257517
:100900000A2E737761705F72616C745F72677569CC
:100910003A2025750A2E6E6F5F6775693A20257536
:100920000A2E737761705F67726176655F657363C6
:100930003A2025750A2E737761705F6261636B736D
:100940006C6173685F6261636B73706163653A20A9
:1009500025750A2E6E6B726F3A2025750A2E7377F5
:1009600061705F6573636170655F636170736C6F05
:10097000636B3A2025750A0064656275675F636F73
:100980006E6669672E7261773A20253032580A2EDA
:10099000656E61626C653A2025750A2E6D61747210
:1009A00069783A2025750A2E6B6579626F617264E9
:1009B0003A2025750A2E6D6F7573653A2025750AE4
:1009C000006565636F6E6669673A0A64656661759E
:1009D0006C745F6C617965723A2025750A003F007E
:1009E0000A6D6F7573653A206F66660A000A6D6F4F
:1009F0007573653A206F6E0A000A6B6579626F61E4
:100A000072643A206F66660A000A6B6579626F61EC
:100A100072643A206F6E0A000A6D61747269783AE6
:100A2000206F66660A000A6D61747269783A206FF9
:100A30006E0A000A64656275673A206F66660A008E
:100A40000A64656275673A206F6E0A000A0A4A7581
:100A50006D70696E6720746F20626F6F746C6F6168
:100A60006465722E2E2E2000433E2000436C65618B
:100A700072696E6720454550524F4D0A00290A00A1
:100A80002575002F002575005D28002564002000D5
:100A9000256400200025640020002564007C0025DA
:100AA000303258006D6F7573656B6579205B6274C9
:100AB0006E7C782079207620685D287265702F61C1
:100AC000636C293A205B000A002530325820006B05
:100AD0006579626F6172645F7265706F72743A20DB
:100AE00025303258207C200073757370656E646900
:100AF0006E67206B6579626F6172640D0A005B57E7
:100B00005D005B535D005B525D005B445D005B43D9
:100B10005D001C034B006100740061006E00610009
:100B200036003000200072006500760032000000C0
:100B30002A0352006F006D0069006E0052006F00C2
:100B40006E0069006E002000430061006E006400CA
:100B500079004B006500790073000000040309046C
:100B600009025400030100A0FA0904000001030176
:100B70000100092111010001224400070581030839
:100B80000001090401000103000000092111010016
:100B900001227B00070582032000010904020001F5
:100BA000030000000921110100012215000705833F
:100BB00003200001120100020000000872723BF0E5
:100BC0000100010200010631FF0974A10109751538
:100BD0000026FF00952075088102C005010902A1C9
:100BE0000185020901A1000509190129081500253F
:100BF000019508750181020501093009311581252A
:100C00007F95027508810609381581257F95017544
:100C1000088106050C0A38021581257F95017508A3
:100C20008106C0C005010980A101850319012AB709
:100C300000150126B700950175108100C0050C094B
:100C400001A101850419012AA002150126A002951F
:100C50000175108100C005010906A101050719E011
:100C600029E7150025019508750181029501750890
:100C700081010507190029FF150026FF009506755B
:100C8000088100050819012905150025019505753C
:100C9000019102950175039101C011241FBECFEF90
:100CA000DAE0DEBFCDBF04B603FE18C08091CE03EC
:100CB0009091CF03A091D003B091D1038730904B96
:100CC000A740B04B59F41092CE031092CF0310926C
:100CD000D0031092D103E0E0F8E3099512E0A0E020
:100CE000B1E0E2EFF5E502C005900D92AC3DB10731
:100CF000D9F723E0ACEDB2E001C01D92AE3CB207E3
:100D0000E1F70E947A170C94B82A0C940000FF9324
:100D1000EF93E091DC02F091DD02309709F0099544
:100D2000EF91FF910895FC018591803011F0EFDF84
:100D3000FBCF0895FF27E0E230E247FF0CC041956A
:100D400097FF09C0EDE26095709580959095611DC3
:100D5000711D811D911D27FF02C0219530E350E2D6
:100D6000AA27660F771F881F991FAA1FA41710F0C4
:100D7000A41B63955A95A9F7AA3008F0A95FA05D56
:100D8000AF93F395611571058105910541F7ED323A
:100D900011F4EF93F395F21718F43F93F395FBCF0B
:100DA0008F91B5DFFA95E1F70895E991F991859171
:100DB000803021F0853219F0AADFF9CF089520E0C4
:100DC000E89455915532C1F3503311F4689455911C
:100DD0005A3348F4505390F3220F022E220F220F61
:100DE000200D250FF4CF0EF421958991999153365A
:100DF00019F3533729F1533559F1BC018827992745
:100E0000E8945C3621F4899199916894559154360F
:100E100039F446EF7EF077FF0DC08FEF9FEF0AC0E9
:100E200055374AE039F0583540E121F0523642E07A
:100E300009F00895FF93EF937DDFEF91FF91B7CF16
:100E4000FF93EF93FC0181918030B9F360DFFBCF1A
:100E5000FF93EF9368DFF1CFDF93CF93CDB7DEB78A
:100E60002596A3DFCF91DF9108958630B8F46530E1
:100E7000A8F44F3098F450E09FE0699F400D511D59
:100E80001124FA019BE4899FE00DF11D1124EE0F5E
:100E9000FF1FE455FF4F85919491089581E090E004
:100EA00008950E943507089581E008950E9454072F
:100EB000089581E008950E94540708950E945B07F9
:100EC000089508950E9461070895A6E0B0E0EBE65A
:100ED000F7E00C94142A49835A839E833091E302ED
:100EE00089819A8131111AC03E81332399F02223DE
:100EF00089F00E94D40D182F682F89819A810E9451
:100F0000B00D69817A81812F0E94C8142696E3E092
:100F10000C94302A0E94C20D182FF3CF0E94D40DDA
:100F200069817A81F1CFFC01262F40815181628154
:100F30007381848195810E9465070895CF93DF9323
:100F4000EC0161E00E949307BE010E945607DF9109
:100F5000CF910895CF93DF93EC0160E00E94930757
:100F6000BE010E946207DF91CF91089521E030E039
:100F7000A90102C0440F551F8A95E2F7CA010E94D9
:100F8000D20C0895CF93C82F81E090E00C2E02C0C0
:100F9000880F991F0A94E2F70E9423128C2F0E9457
:100FA000B607CF91089581E008950E94D307089570
:100FB000CF93C82F0E94850C8C2F0E94D5072FEF4E
:100FC00084E39CE0215080409040E1F700C00000A5
:100FD000CF91089581E00E94D8070E944E22089583
:100FE00080E00E94D8070E94722208950F931F93F9
:100FF000CF93DF938C0161E00E949307EC01B8016D
:101000000E945E07811106C080E0DF91CF911F91A1
:101010000F910895B801CE010E947A1F8823A1F391
:10102000B801CE010E941C1B882371F3B801CE01C8
:101030000E94F21A882341F3B801CE010E94CA151A
:10104000882311F3F8018581882369F0C330FCE718
:10105000DF07A1F160F4C130ECE7DE0789F1C0F4ED
:10106000C115DC4791F0C8010E945907CECFCB359E
:10107000ECE7DE0759F1CC35FCE7DF0721F1CA3593
:10108000DC4789F70E94FE11EECF0E94EA07BCCF31
:1010900090917A03892F8E7F90FF816080937A03ED
:1010A00080FF09C082E494E09F938F930E942C07F5
:1010B0000F900F90A9CF80E394E0F6CF0E94061224
:1010C0000E94F007A1CF0E94F411CDCF0E9402121E
:1010D000CACF0E947F210E94AE0808950E94B208E4
:1010E0000E9484210895829590E09C01220F331F75
:1010F000220F331F2C7C9595879595958795837343
:10110000282B30E0C901880F991F8A7A35952795D9
:101110002575822B0895CF93DF93D92F0E947308F2
:10112000C82F8D2F0E9473089C2FDF91CF910895B7
:1011300081E008950895CF93DF93D82F0E949808F7
:10114000C82F882319F08D2F0E949A088C2FDF91C9
:10115000CF91089508950E949B08089580E00E9411
:10116000AB0808950E94C31F0E94AB080895CF9357
:101170000E94C31FC82F8091DE028C1701F1C0931B
:10118000DE020E940F226093DF027093E0028093E0
:10119000E1029093E20280917A038570853061F4D8
:1011A0001F92CF9383E594E09F938F930E942C0727
:1011B0000F900F900F900F908C2F0E94AB08CF9143
:1011C0000895ADE0B0E0E7EEF8E00C94152A48870A
:1011D00059876A877B878C879D8791110E9421118F
:1011E0001F8286E0FE013896DE01119601900D9275
:1011F0008A95E1F78D8181110DC029813A814B815A
:101200005C816D817E818F810E946B102D96E2E062
:101210000C94312ACE0101960E949E078111EDCFD8
:10122000F5CFFC012481213021F4808191810E943D
:10123000060E0895662329F00E947D1C0E94501D11
:1012400008950E94D71CFACFCF93C82F8823C9F0E6
:101250008238C9F40E94D01F81FD13C089E30E9427
:10126000C9200E9490112FEF87EE93E0215080401B
:101270009040E1F700C0000089E30E94D1200E9465
:101280009011CF9108958338A1F40E94D01F80FD62
:10129000F8CF83E50E94C9200E9490112FEF81EEC4
:1012A00094E0215080409040E1F700C0000083E5C9
:1012B000E4CF8438A1F40E94D01F82FDE2CF87E4FE
:1012C0000E94C9200E9490112FEF81EE94E02150DE
:1012D00080409040E1F700C0000087E4CECF8CEF63
:1012E0008C0F813A98F48C2F0E94921A8111C9CFE9
:1012F0008C2F0E948E20882329F08C2F0E94D120D1
:101300000E9490118C2F0E94C920B9CF80E28C0FCF
:10131000883048F4C77081E001C0880FCA95EAF7A9
:101320000E940411ACCFEBE5EC0FE33040F4F0E0A9
:10133000E25BFE4F808190E00E942F20A2CFE8E583
:10134000EC0FEB3150F4F0E0EE0FFF1FE85EFE4FC4
:10135000808191810E94542094CF83E38C0F83314C
:1013600008F08FCF61E08C2F0E941A098ACF882362
:1013700009F456C0823879F40E94D01F81FF50C012
:1013800089E30E94C9200E94901189E30E94D12024
:101390000E9490110895833859F40E94D01F80FF55
:1013A0003FC083E50E94C9200E94901183E5EECFE3
:1013B000843859F40E94D01F82FF32C087E40E9413
:1013C000C9200E94901187E4E1CF9CEF980F913AD9
:1013D000E8F290E2980F983050F4877091E001C0E5
:1013E000990F8A95EAF7892F0E940A11D1CF9BE5C0
:1013F000980F933028F490E080E00E942F20089509
:1014000098E5980F9B3128F490E080E00E945420EA
:10141000089593E3980F933118F460E00E941A093D
:1014200008951F93CF93DF93182FEB010E94240997
:10143000209739F4812F0E94B709DF91CF911F9136
:1014400008958FE99FE00197F1F700C00000219710
:10145000EFCF70E060E0893311F460E570E00E9446
:10146000110A0895882321F00E9404110E9490110E
:101470000895882321F00E940A110E949011089576
:10148000B0E0A0E0E6E4FAE00C940E2A6C01D62F5E
:10149000C72FFC011581068102950F700E94FA107A
:1014A000E82E8823F9F0E12E1123E1F08C2F807FC4
:1014B000803461F080E28D0F883008F18C2F807EBF
:1014C000803221F4D230D8F00023C9F08091A803F3
:1014D00082FF15C082E00E94B5110E94FA1091E0CF
:1014E000E82EE926BC2EB2949FE0B922FBE0FB1562
:1014F000B8F1EB2DF0E0E654F54D0C94FF29E12C0A
:10150000F1CF0C2F0F70C07F11F00295007F1123D7
:1015100099F0002359F080E28D0F883010F0D1113E
:1015200007C0802F0E9404110E9490118D2F5AC075
:10153000802F0E941411F8CF8D2F0E94B70900232D
:1015400079F080E28D0F883010F0D11104C0802F27
:101550000E940A1103C0802F0E941A110E9490114C
:10156000EB2DE850FF0B349720F40E94C31F0E941C
:10157000AB08EE2089F00E94F61080FD0DC0F60148
:1015800015820E94F0100E940E0DC6010E944C0CA4
:101590000E94F0100E941E0DCDB7DEB7E9E00C945A
:1015A0002A2A2C2F2F70F22EC07FC03219F0F2940D
:1015B00080EFF822DD2341F0D130D1F1112309F47D
:1015C00044C00023F1F0B2CF8091A80382FD15C082
:1015D000112359F0FF2029F08F2D0E9404110E9441
:1015E000901180E00E942409BBCF80E00E94B709DF
:1015F000FF2009F4B5CF8F2DABCF112369F0011176
:1016000004C08F2D0E94320AABCF013009F0A8CF61
:101610008F2D0E943811A4CF0111A2CF8F2D0E94CF
:10162000390A8F2D0E9444118F2D0E94281198CFC6
:10163000112321F0063008F093CFE3CF053008F0F6
:101640008FCF8F2D0E94390A8BCF0023D1F3D9334E
:1016500049F43FEF87EE93E0315080409040E1F74E
:1016600000C000008D2F0E94B7097ACF8C2F86957D
:101670008695837069F0813009F072CF8D2F9C2F91
:101680009370111102C080E090E00E94542068CF56
:101690008D2F9C2F9370111102C080E090E00E946A
:1016A0002F205ECF612F8D2F0E941A0959CF8C2FCA
:1016B0008370A1F5111154CF4D2F42954695477077
:1016C000440F440F2D2F2F7030E0042E02C0220F44
:1016D000331F0A94E2F790E080E0D4FF09C08FE066
:1016E00090E002C0880F991F4A95E2F78095909587
:1016F000C695C695C370822B932BC23049F058F41F
:10170000C13019F00E94DE0C2BCF0E94D50C28CFDF
:101710000E94E70C25CF0E94D20C22CF8695112380
:1017200011F08C2F8170882309F41ACF4D2F429528
:1017300046954770440F440F2D2F2F7030E0042E34
:1017400002C0220F331F0A94E2F790E080E0D4FF3A
:1017500009C08FE090E002C0880F991F4A95E2F718
:1017600080959095C695C695C370822B932BC230F9
:1017700049F058F4C13019F00E94490DF1CE0E9491
:10178000400DEECE0E94520DEBCE0E94F60CE8CE3C
:10179000CF70112329F08C2F0E940E0D8D2F32CF88
:1017A0008D2F0E94390A8C2F0E941E0DD9CED23F58
:1017B00041F160F4D03FB9F0D13F81F0112309F439
:1017C00043C00111B3CE8C2F8F711FC0D33F01F1E5
:1017D000D43FA1F78091A80382FD24C08C2F8F7184
:1017E000112311F312C0112341F0053008F0B8CED7
:1017F0008C2F8F710E94300DB3CE063008F0B0CE22
:10180000F7CF8C2F8F711111CFCF0E940E0DA8CE64
:10181000112329F08C2F8F710E94020DA1CE0E94FE
:10182000FD0C9ECE112331F063E08C2F8F710E944E
:10183000971196CE81E00E94B511023008F490CE47
:1018400082E00E94B5118CCE002359F0D93309F003
:1018500009CFEFEFF7EE23E0E150F0402040E1F751
:10186000FFCE8C2F8F71A0CF0F931F93CF93DF9359
:10187000EC01688179818D810E94110E8C010E949A
:101880005B0D0E94D10CB801CE010E94400ADF918D
:10189000CF911F910F910895CF93DF93EC018C812D
:1018A000882399F0CE010E94F607811111C00E9491
:1018B000FA10882351F08D81882339F08091A80394
:1018C00082FF03C082E00E94B511DF91CF9108959D
:1018D000CE010E94340CCE010E94AA07F6CF90E000
:1018E00080E00E942F2090E080E00E9454200E941F
:1018F00021110E9490110E94061E0E94501D089501
:101900000E94D9200E946F0C08950E9411110E941C
:10191000800C089592959F70963091F058F4925FE4
:101920009F70923058F4803F19F030F4883E30F4C4
:1019300081E008959A5FF4CF843FD1F380E0089569
:10194000883EB0F3813FD1F7F3CFFC0124812223FD
:1019500039F0808191810E94060E0E948A0C0895C0
:1019600080E00895A6E0B0E0E8EBFCE00C94152AD6
:101970002696E2E00C94312AA7E0B0E0E2ECFCE02D
:101980000C94152A2796E2E00C94312A08950E94BF
:10199000C60C08950E94C70C90930F0380930E030A
:1019A000089508950E94CA0C089520910E03309165
:1019B0000F03822B932B0E94CA0C089520910E03D3
:1019C00030910F03822393230E94CA0C0895209123
:1019D0000E0330910F03822793270E94CA0C0895AB
:1019E0000E94C60C08950E94F00C08950E94F30C0A
:1019F00090930D0380930C03089590E080E00E9483
:101A0000F60C089521E030E0A90102C0440F551FF3
:101A10008A95E2F7CA010E94F60C089521E030E0B1
:101A200002C0220F331F8A95E2F780910C03909138
:101A30000D03822B932B0E94F60C089521E030E0D9
:101A400002C0220F331F8A95E2F7209530958091CE
:101A50000C0390910D03822393230E94F60C0895AA
:101A600021E030E002C0220F331F8A95E2F7809117
:101A70000C0390910D03822793270E94F60C089582
:101A800020910C0330910D03822B932B0E94F60CB6
:101A9000089520910C0330910D03822393230E941B
:101AA000F60C089520910C0330910D0382279327A3
:101AB0000E94F60C08950895262F277091E001C02A
:101AC000990F2A95EAF723E0769567952A95E1F72D
:101AD000660F771F660F771FFA01E60FF71F50E0BA
:101AE00040E0682F70E08191DF0111979B01042E87
:101AF00002C0369527950A94E2F721702195282790
:101B0000292328272C934F5F5F4F4430510559F705
:101B10000895A82FA77023E0969587952A95E1F759
:101B2000880F991F880F991FFB01E80FF91F50E0DC
:101B300040E080E0219130E00A2E02C036952795E2
:101B40000A94E2F721703327042E01C0220F0A9471
:101B5000EAF7822B4F5F5F4F4430510559F70895E4
:101B6000262F953070F48F3060F4682F70E08FE08E
:101B7000989F600D711D112444EE52E0822F0E9447
:101B80005C0D0895292F953068F48F3058F490E05B
:101B900064EE72E03FE0239F800D911D11240E94AE
:101BA000890D089580E00895B0E0A0E0EAEDFDE041
:101BB0000C940E2A7C0100910C0310910D0380916E
:101BC0000E0390910F03082B192BCFE0D0E0CC240B
:101BD000C394D12CBC2EC6010C2E02C0880F991FB5
:101BE0000A94E2F780239123892B49F4219790F7F7
:101BF000B12C8B2DCDB7DEB7E9E00C942A2AB701C2
:101C00008C2F0E94D414019789F3F3CFCF93DF93E5
:101C1000EC010E94D40DBE010E94D414DF91CF913B
:101C200008951F93CF93DF93EB019091E3029923E3
:101C300039F0CB010E94060EDF91CF911F910895DC
:101C4000882369F0CB010E94D40D182F682FCE0194
:101C50000E94B00DBE01812F0E94D414EDCFCB01A4
:101C60000E94C20D182FF6CF1F93CF93DF93C09120
:101C7000100317E0809111038C1304C0DF91CF9102
:101C80001F910895D0E01C9FF0011D9FF00D1124BD
:101C9000EE5EFC4F208131814281538164817581E8
:101CA00086810E94BC0C2196C770E4CF20914A0324
:101CB00030914B0340914C0350914D0360914E0382
:101CC00070914F03809150030E94BC0C0895CF93F4
:101CD000DF9380915003807F09F04DC080914F03C6
:101CE000882309F448C0E091100350911103C0917A
:101CF0004B03D0914A0360914C0370914D0347E030
:101D00005E17C9F18E2F90E0E49FF0011124EE5E82
:101D1000FC4F2481222391F1489FF001499FF00D4F
:101D20001124DF01AE5EBC4F11962C9111972C133C
:101D300025C02C912D1322C015962C911597211199
:101D40001DC012962D913C91261B370B283C310566
:101D5000A8F4809150038F70806180935003E85EF7
:101D6000FC4F80818F70806180838AE493E00E94C1
:101D70004C0C0E94340EDF91CF910895FC013196F6
:101D8000E770BECF482F209110039091110357E0C8
:101D9000291302C080E0089530E0529FF001539F64
:101DA000F00D1124EE5EFC4F8181681306C0808126
:101DB000481303C085818111EECF2F5F3F4F2770FD
:101DC000E7CFA4E1B0E0E7EEFEE00C940B2A8C0133
:101DD00086E0F801DE011F9601900D928A95E1F7E9
:101DE000F8018481E5809AE4A92E93E0B92E9091C0
:101DF0004E0391111FC08823D1F0EE20A9F0C80135
:101E00000E94A50CF82E882379F087E0F801D5010F
:101E100001900D928A95E1F7C5010E9411090E9477
:101E2000670E0E94560E5FC0C8010E944C0CFF2432
:101E3000F39459C0C080D18082809380F0904F038A
:101E400020914C0330914D03A401421B530BFF2002
:101E500009F4F9C0483C510508F0A7C0882309F4EB
:101E600042C090914B0380915003282F207F09F0AE
:101E70005CC09D1116C090914A03C91212C0E110B6
:101E80004EC08F708061809350030E94560E8AE48A
:101E900093E00E944C0C80915003F8018683F12C52
:101EA00022C0E1103CC06D2D8C2D0E94C20E6D2D04
:101EB0008C2D0E94C20EE82E8111F1CFCF86D88AD8
:101EC0008F8598890E94060E292F22952F70243025
:101ED00078F49F702230A8F09923B9F0F801968128
:101EE000907F99F4FE2C8F2D6496ECE00C94272AB9
:101EF0002A5F2F70223068F0C8010E944C0CEF2C32
:101F0000F1CF992311F0882369F3805E883050F374
:101F1000F3CF803F38F3815F833070F7E3CF809158
:101F20005003816080935003BACF9D1113C09091EC
:101F30004A03C9120FC0E1100DC08683C8010E9478
:101F40004C0C87E0F801AAE4B3E001900D928A9569
:101F5000E1F767CFC8010E94A50C882309F464CF7C
:101F6000EE2009F461CF80915003803288F02091F7
:101F70004A0330914B03398728879B868A86909144
:101F80004E039C871D868E87CE0108960E944C0CBE
:101F900087E0F801AAE4B3E001900D928A95E1F799
:101FA0000E94670E0E94560E42CF90915003292F37
:101FB000207FA1F4682D9A8A898AA6017A899E2DAC
:101FC0000E94B20C8AE493E00E944C0C87E0F50179
:101FD00011928A95E9F70E94560E61CF882309F481
:101FE00082CF80914B038D1110C080914A03C8129B
:101FF0000CC0E1100AC09683C8010E944C0C87E017
:10200000F50111928A95E9F76ECFC8010E94A50CDF
:10201000882309F409CFEE2009F406CF80915003FC
:10202000803208F4B5CF20914A0330914B033A83B4
:1020300029839C828B8290914E039D831E828F8385
:10204000CE010196A3CF483C5105B8F5882309F489
:10205000EECEFE2CEE2009F4E7CE80914B038D11DD
:102060001EC080914A03C8121AC08091500380FD9F
:102070000DC0982F907F51F08683903F09F45ECF7A
:10208000982F907F905F8F70892B57CF87E0F80152
:10209000AAE4B3E001900D928A95E1F724CFC8013C
:1020A0000E94A50C811174CF8091500381608093B0
:1020B0005003C8010E944C0C16CF682D9A8A898A59
:1020C000A6017A899E2D0E94B20C87E0F50111923B
:1020D0008A95E9F7A6CEAEE0B0E0E1E7F0E10C9436
:1020E000142A288739874A875B876C877D878E8784
:1020F000CE0108960E94E10E8823B1F06C8566231C
:1021000041F0288539854A855B857D858E850E94CD
:10211000BC0C17E0809110039091110389133DC00E
:102120002E96E3E00C94302A87E0FE013896DE011B
:10213000119601900D928A95E1F78C85882349F3D9
:102140002091110330E0C9010196877099274091D1
:1021500010034817190699F097E0929FD001939FBA
:10216000B00D1124AE5EBC4FFE01319601900D9270
:102170009A95E1F7809311030E94340ECACF0E9412
:10218000850C109211031092100387E0EAE4F3E04B
:10219000DF011D928A95E9F7BCCF819FC001112410
:1021A0008E5E9C4F0E94E10E882309F4B9CFE09126
:1021B00010031E9FF0011124EE5EFC4F208131813F
:1021C000428153816481758186810E94BC0C80911B
:1021D000100390E0019687709927809310039ACF9F
:1021E0008091590386958695869508958091590327
:1021F0008770089590915903977081E009F480E009
:10220000089580916503089590916503892B8093CB
:1022100065030895809590916503982390936503D5
:10222000089510926503089590916403892B80931B
:1022300064030895809590916403982390936403B8
:10224000089510926403089508950E94241108953A
:1022500090915A03292F282331F080958923809368
:102260005A030E942511089508950E94341108957B
:1022700090915B03292F2823281729F0982B9093FE
:102280005B030E943511089590915B03292F282349
:1022900031F08095892380935B030E943511089566
:1022A00080915B03882329F010925B0380E00E94F9
:1022B000351108950F931F93CF93DF930091000181
:1022C00010910101C091650380916403C82B809136
:1022D0005B03882331F0C82B0E94792081110E9472
:1022E0005011F801C083C0910001D091010148E074
:1022F00050E061E573E0CE010E94502A892B59F02D
:1023000088E0FE01A1E5B3E001900D928A95E1F726
:10231000CE010E94D31FDF91CF911F910F9108959D
:102320000E945A11089508950E9493110895909162
:10233000A80392FF11C098E0899F90011124622B9D
:10234000609359030E940E0D8091590386958695DE
:1023500086950E94941108950E940E0D0895109282
:10236000590380E00E94941108959091590380953B
:10237000892380935903282F277069F4891759F00E
:102380009091A80392FF07C08695869586950E9436
:102390001E0D0E94AF110895CF93C82F8091A803FE
:1023A00082FB992790F99C17E9F0C0FB82F9809392
:1023B000A8038091A7039091A8030E942E1282E0A7
:1023C0000E94B51180917A0380FF0CC01F92CF93B9
:1023D00083E694E09F938F930E942C070F900F90B9
:1023E0000F900F90CF9108958091A80382FB8827CA
:1023F00080F991E089270E94CC11089581E00E9424
:10240000CC11089580E00E94CC1108956FEF7FEF0A
:1024100090E080E00E94A22A089590E080E00E946F
:102420006E2A21E0853E9E4F09F020E0822F08951C
:1024300082E090E00E94662A089583E090E00E9486
:10244000662A90E00895682F83E090E00E94842A35
:10245000089584E090E00E946E2A0895BC0184E013
:1024600090E00E94A22A0895AB01BC018FE090E0A9
:102470000E94962A0895AB01BC0183E190E00E947E
:10248000962A089560E070E0CB010E943B12089507
:1024900060E070E0CB010E9434120E944212089565
:1024A000A8E0B0E0E6E5F2E10C94152A65EE7EEFD7
:1024B00090E080E00E94A22A60E082E090E00E942A
:1024C000842A81E090E090930F0380930E030E9492
:1024D000231260E074E184E090E00E94A22A60E0B0
:1024E00086E090E00E94842A60E087E090E00E940D
:1024F000842A40E050E0BA0188E090E00E94962AE9
:1025000060E083E290E00E94842A60E08CE090E04A
:102510000E94842A60E08DE090E00E94842A198263
:102520001A821B821C821D821E821F82188648E02E
:1025300050E067E170E0CE0101960E94742A40E00D
:1025400050E0BA018FE190E00E94962A0E94481262
:102550002896E2E00C94312A0E9450120895682FC8
:102560008EE090E00E94842A0895A6E0B0E0EBEBB4
:10257000F2E10C94132A0E9403228C0180916603DD
:10258000909167038017910781F019821A820E9447
:102590000322682F49815A81792F80E090E00E94C0
:1025A000E10810936703009366032696E4E00C9419
:1025B0002F2A0E940F2260937603709377038093F3
:1025C00078039093790360937203709373038093FD
:1025D0007403909375030895089508950E94EC1272
:1025E000089508950E94F11208958FE294E20E94E6
:1025F00091170E94ED120E94EE12089581E0089555
:102600000E94FE1208950E94FE12089508950895F2
:102610000E9406130E94071308950E940D12811153
:1026200002C00E94AC120E94181280937A030E948A
:1026300029129093A8038093A7030E941D120E9461
:10264000D20C80910C0390910D030E94F30C08951D
:102650000E94FA210E94EA160E940D130E94AA0805
:102660000E94F2120895A6E0B0E0E9E3F3E10C94D1
:10267000092A0E94001381110AC00E94B5120E940B
:10268000281E0E94B7082696EEE00C94252A0E9488
:10269000001728E6822E23E0922E640110E0F60156
:1026A000E190F1906F01812F0E94E4151F5F1530BA
:1026B00009F44BC0E816F90691F380917A0381FD85
:1026C0000E94ED150E940313782E10E06624639497
:1026D000812F0E94E4157C01F401A190B1904F017B
:1026E0008A159B0561F100E0CC24C394D12CAE2463
:1026F000BF24C5018C219D21892BC1F07720B1F029
:1027000009831A830E9403229C838B836D8221E0BC
:10271000C7018C219D21892B09F420E049815A8130
:102720006B817C818D81922F0E94E1080F5FCC0C20
:10273000DD1C0F30F1F6F4013297F182E0821F5F69
:10274000153031F60E94D9129ACFE816F90609F031
:10275000B4CF93CF1F93CF93DF930E94D914EC0192
:10276000C11580E5D807F0F5C11580E4D80708F059
:102770009CC0C03ED10520F5CD3CD10508F082C0FB
:10278000C83AD10578F4C53AD10508F073C0C13014
:10279000D10519F1209709F1C430D105F0F4D0E04A
:1027A000C0E01BC0C33CD105D0F7C85AD0E0CC0F65
:1027B000DD1FCF5ADE4F0990D881C02DD4640DC0E3
:1027C000C11580E2D80708F0D1C0C11581E0D80753
:1027D00008F05AC0C83ED10510F7CE01DF91CF9165
:1027E0001F910895C03682E5D80718F5C03482E5F8
:1027F000D80708F06BC0C03282E5D80708F05FC088
:10280000C11582E5D80708F497C02C2F2695269588
:1028100080E2289F900111248C2F8370C1E0D0E0CA
:1028200002C0CC0FDD1F8A95E2F7C22BD32BDD68E7
:10283000D4CFC03A82E5D80760F4C03882E5D80723
:1028400008F459C0CF71D0E0DC2FCC27C46FD06A18
:10285000C4CFC03C82E5D80708F462C0C03E82E520
:10286000D80708F09CCFDC2FCC27CC27DF71C06FB6
:10287000D06AB3CFC55AD0E0C957DE4FC881D0E087
:10288000D064ABCFD065A9CF8D2F0E947B15182FB8
:10289000CE0199270E94D914C12FD0E0DC2FCC277C
:1028A000CC27DF71C82BD92B98CFCE0199270E9456
:1028B000D914CC27DF70C82BD92BD06A8ECFCF711B
:1028C000D0E0DC2FCC27C16FD06A87CF2C2F269584
:1028D0002695277080E2289F900111248C2F837009
:1028E000C1E0D0E002C0CC0FDD1F8A95E2F7C22B19
:1028F000D32BDC6872CF2C2F26952695277080E28B
:10290000289F900111248C2F8370C1E0D0E002C079
:10291000CC0FDD1F8A95E2F7C22BD32BDA685DCF8F
:102920008C2F8F710E947B15C82FD0E0DC2FCC2715
:10293000CC27DF71D06251CF8C2F8F710E947B1515
:1029400055E0D695C7955A95E1F7CF70D0E0DC2FCA
:10295000CC27282F30E084FF05C044E0220F331F2E
:102960004A95E1F7C22BD32BD06937CF8D2F8F71CA
:102970000E947B15182FCE0199270E94D914C12FD0
:10298000D0E0DC2FCC27CC27DF71C82BD92BD2CFBE
:10299000462F753030F46F3020F4672F0E945107B6
:1029A000089590E080E008950E94C8140E94AA1340
:1029B000089582389105B9F1B0F48133910509F495
:1029C0007DC048F48932910509F46DC08A329105C1
:1029D00009F47BC008958533910509F45FC08933FC
:1029E000910509F10895833E9105D9F138F4803EAF
:1029F000910529F1823E910579F10895863E910570
:102A0000D9F1873E910509F43EC0843E910541F518
:102A10002091A80321FF24C08091A70384FD19C041
:102A200087EE90E008952091A703237009F05AC023
:102A30002091A80323FF14C089E290E0089520911B
:102A4000A70320FD38C03091A80330FF09C024FF40
:102A500043C090E080E008952091A70322FDF7CFC6
:102A600008952091A70322FD3AC03091A80330FDBC
:102A700039C024FFF5CFEDCF2091A70323FFF0CF7E
:102A800024FDE7CFCDCF2091A70323FD2EC03091A9
:102A9000A80331FFEECF84EE90E008952091A703C4
:102AA00025FFDECFC9CF2091A70325FD21C02091AE
:102AB000A80323FFD5CF89E390E0D2CF2091A703CD
:102AC00026FFCECF8AE290E008952091A70326FF4B
:102AD000C7CF81E390E0089583EE90E0089582EE01
:102AE00090E0089580EE90E0089586EE90E00895DD
:102AF00085E390E008959091A70392FF10C041E014
:102B0000282F2471243009F040E031E0282F28716B
:102B1000283009F030E0431711F02CE0822793FFB2
:102B200010C041E0282F2471243109F040E031E049
:102B3000282F2871283109F030E0431711F02CE0DC
:102B400082273091A80330FF10C051E0282F217157
:102B5000213009F050E041E0282F2871283009F099
:102B600040E0541711F029E0822731FF10C041E006
:102B7000282F2171213109F040E031E0282F287100
:102B8000283109F030E0431711F029E0822794FD45
:102B9000877E0895CF939C01205E3245C1E02032AC
:102BA000310538F4FB01C581C11103C08F710E944A
:102BB000C2078C2FCF91089508950E94DC150895C7
:102BC00008950E94E0150895E82FF0E0EE0FFF1F32
:102BD000ED54FC4F808191810895B0E0A0E0E3EFD7
:102BE000F5E10C940B2A88E894E09F938F930E9460
:102BF0002C0783EBE82E83E0F82E0F900F90912C9A
:102C0000812C93E8A92E94E0B92E20E8C22E24E06E
:102C1000D22E0AE714E0C8E7D4E09F928F92BF92C9
:102C2000AF920E942C07DF92CF920E942C07F701EF
:102C3000819191917F010E948B089F938F931F93A5
:102C40000F930E942C07DF93CF930E942C079FEFD6
:102C5000891A990AEDB7FEB73C960FB6F894FEBFF5
:102C60000FBEEDBFF5E08F169104B9F6CDB7DEB714
:102C7000ECE00C94272A80EA8A95F1F7089500C0C9
:102C800008950E943B160895F894E82FE295EF709E
:102C9000F0E031A1282F2F7081E090E001C0880F73
:102CA0002A95EAF7982F9095932391A392A1892BC7
:102CB00082A3789408950F931F93CF93DF93C9E96C
:102CC000D1E089918F3F11F00E94441681E0CE3906
:102CD000D807B9F7CAE8D1E009E911E089918F3F37
:102CE00011F00E9444160C171D07C1F7DF91CF9118
:102CF0001F910F910895AF92BF92DF92EF92FF92D2
:102D00000F931F93CF93DF938C01D62EC62FD0E065
:102D1000CE0187569E4F7C01FC0120812F3F09F494
:102D20004CC0F894E22FE295EF70F0E031A12F70E3
:102D300081E090E001C0880F2A95EAF7932F982B45
:102D400091A392A18095892382A378940E943F1633
:102D5000EAE8F1E041E050E0B12CA12C21912F3FB5
:102D6000B1F1A22FA295AF70B0E090968C9190E057
:102D70002F7002C0959587952A95E2F780FD27C0B0
:102D8000CA01A82AB92A440F551F81E0E939F8077A
:102D900029F7F70180818F3F11F00E94441661E00E
:102DA000A114B10409F460E08D2D0E944116CC0FEE
:102DB000DD1FC00FD11FB982A882DF91CF911F9173
:102DC0000F91FF90EF90DF90BF90AF90089590E04B
:102DD00080E0D7CF0E945B168AE0E3EBF3E0DF01EF
:102DE000982F1D929A95E9F7E9EAF3E0DF011D9229
:102DF0008A95E9F785E00E943B170E94DD1508954A
:102E0000AAE0B0E0E6E0F7E10C94122A8E010F5F31
:102E10001F4F8AE0F80111928A95E9F7F12C6F2D86
:102E2000C8010E947B16F394F5E0FF12F8CF4AE048
:102E300050E0B80189EA93E00E94502A21E000970F
:102E400009F420E0892B41F08AE0F801A9EAB3E017
:102E500001900D928A95E1F745E063EB73E089EA12
:102E600093E00E943C17182F0E94E115812F2A96AB
:102E7000E5E00C942E2A0895B0E0A0E0E2E4F7E14A
:102E80000C940F2A6C017B01042FC22F222379F0AE
:102E900081E080937D030E94032290937C038093C2
:102EA0007B0380E0CDB7DEB7E8E00C942B2AD0910D
:102EB0007D03DD23B1F380917B0390917C030E941D
:102EC0001B22059770F310E0000F111FA801B60137
:102ED000C7010E94502A892B31F0A801B601C70111
:102EE0000E945D2ACD2F10927D038C2FDBCF0E9494
:102EF000331308950E949C210E9491240E94F51290
:102F00000E94AB240E9428130E94B8240E94BD2472
:102F10000E9477170E94E3240E94C6220E94081391
:102F2000F5CF9093DD028093DC0208958091020139
:102F30001F928F93809103011F928F9380910601BE
:102F40001F928F93809107011F928F9380910801A8
:102F50001F928F93809109011F928F938FE994E0C4
:102F60009F938F930E942C078DB79EB70E960FB636
:102F7000F8949EBF0FBE8DBF0895883248F58E31FC
:102F800008F07FC08B3069F130F4873009F4E0C07D
:102F90008EEF95E0F1C0833109F468C08431C1F748
:102FA00080E296E09F938F930E942C070F900F90E2
:102FB00080918203882309F411C110928203109238
:102FC00081031092800310927F0310927E0325C02C
:102FD0008F3409F4D6C008F03FC0893209F3883332
:102FE000B9F683E296E09F938F930E942C070E948C
:102FF00096171F9281E08F931F9288E08F938CE148
:1030000095E09F938F930E942C078DB79EB70896EB
:103010000FB6F8949EBF0FBE8DBF2091820322236E
:1030200009F4D3C080917E0390917F03009711F43F
:103030008EE991E09F938F931F922F938CEE95E0F2
:103040009F938F930E942C070F900F900F900F90DB
:103050000F900F9081E00895813509F4A6C008F41F
:10306000A6C0823509F094CF81E08CC082E196E061
:103070009F938F930E942C070E9496170F900F909A
:10308000CCCF8D5180938203833009F446C078F40D
:103090008130E1F08230C1F1109282038FE096E03E
:1030A0009F938F930E942C070F900F901BC0853029
:1030B00009F445C0D8F1863079F782E091E0909329
:1030C00081038093800386EE91E008C089E091E05F
:1030D000909381038093800382EA91E090937F0331
:1030E00080937E0380918203882309F496CF1F92F8
:1030F0008F938BE096E09F938F930E942C070F9005
:103100000F900F900F9089CF88E091E0909381030A
:10311000809380038BEA91E0E1CF87E091E0909388
:1031200081038093800387EB91E0D8CF86E091E024
:10313000909381038093800384EC91E0CFCF83E070
:1031400091E0909381038093800383ED91E0C6CF5B
:1031500081E08093090184E1809308018AE08093F3
:1031600007018EE18093060188E08093030188E2E5
:103170008093020181E096E09F938F930E942C0739
:103180007DCF8AE0E0918003F09181033097D1F008
:103190002081082E000C990B820F911D8F3F910505
:1031A00041F03CF08FEF808307C08FEFEBCF86EFCD
:1031B000E9CF97FFF8CF108280811F928F9388EF1D
:1031C00095E099CF85EF95E0D7CF88EE95E09F9376
:1031D0008F930E942C070F900F903CCF80E00895B2
:1031E000CF93C82F1F928F9389E396E09F938F937D
:1031F0000E942C0781E090E002C0880F991FCA95B9
:10320000E2F70E94D20C0E94850C0F900F900F9055
:103210000F90CF910895EF92FF920F931F93CF934A
:10322000DF938B3109F426C108F0B4C08B3009F468
:10323000D2C008F086C0863009F4E6C068F4853054
:1032400009F4B6C08EED99E09F938F930E942C07EE
:103250000F900F9080E0F0C0873009F4F2C0883002
:1032600089F70E941D129F938F9381EC99E09F93A1
:103270008F930E942C070E94181283FB992790F9C4
:103280001F929F9382FB992790F91F929F9381FB36
:10329000992790F91F929F93982F91701F929F9357
:1032A0001F928F9388E799E09F938F930E942C073A
:1032B0000E94291293FB222720F91F922F9387FB4C
:1032C000222720F91F922F9386FB222720F91F9295
:1032D0002F9385FB222720F91F922F9384FB22270F
:1032E00020F91F922F9383FB222720F91F922F93FF
:1032F00082FB222720F91F922F9391FB222720F98E
:103300001F922F93292F21701F922F9381FB222729
:1033100020F91F922F93282F21701F922F939F9394
:103320008F9389E798E09F938F930E942C078DB726
:103330009EB78A960FB6F8949EBF0FBE8DBF81E0F0
:103340007BC0803109F4B0C080F48E3009F07ACFB0
:1033500090917A03892F8B7F92FF846080937A0308
:1033600082FF9FC089E09AE091C0863109F4ACC029
:10337000893109F067CF8BEF91E09F938F9389EAB2
:1033800096E09F938F930E942C070F900F900F90C1
:103390000F90D5CF8A3269F1A0F4873231F128F449
:1033A0008E3108F44FCF8D5121C0893209F04ACFB8
:1033B0008CE49AE09F938F930E942C070E94EA0767
:1033C00020C0833478F48A3308F0A5C0853369F0CF
:1033D000883309F037CF83ED96E09F938F930E9457
:1033E0002C070FC0833409F02DCF80E00E94F01825
:1033F000A6CF8CE69AE09F938F930E942C070E94A1
:10340000AC120F900F909BCF80917A03807F8093B6
:103410007A038CEA96E09F938F930E942C0788E6AC
:103420009AE09F938F930E942C0781E080938303FF
:103430000F900F900F900F90CDB7DEB7E6E00C9491
:103440002D2A90917A03892F8E7F90FF816080933F
:103450007A0380FF03C080E49AE0BFCF83E39AE061
:103460009F938F930E942C0780917A03817F809392
:103470007A03C7CF90917A03892F8D7F91FF826065
:1034800080937A0381FF0AC086E29AE09F938F932C
:103490000E942C0780917A038160E9CF88E19AE04D
:1034A0009CCF89EF99E099CF90917A03892F877FFC
:1034B00093FF886080937A0383FF03C08DEE99E0C9
:1034C000E5CF80EE99E089CF0E940F22162F072FBB
:1034D000F82EE92E0E947A21D82F0E945A21C82F57
:1034E0000E94C31FEF92FF920F931F931F92DF93CF
:1034F0001F92CF931F928F938EE396E09F938F93AB
:103500000E942C078DB79EB70C960FB6F8949EBFFD
:103510000FBE8DBF14CF895369CF80E008950E94FC
:103520008D1A0895CF93C82F809183038130C1F005
:10353000882339F0823009F450C01092830380E070
:103540000DC00E9401118232D1F78C2F0E948D1A7A
:1035500081111FC08C2F0E940B198170CF9108958B
:103560000E940111823289F38C2F0E948F1A8111DF
:1035700027C0C43139F180F4CB3091F0C03131F142
:1035800083E396E09F938F930E942C070F900F90F8
:103590001BC081E090E0E1CFC932A1F0C83381F7D0
:1035A0008CEA96E09F938F930E942C0785E396E028
:1035B0009F938F930E942C070F900F900F900F9066
:1035C00081E0CBCF1092830380E0C7CF82E080936D
:1035D000830388E30E94BD17F3CF8C2F0E94BD1791
:1035E00081E0BCCFCF93DF93EB0186319C4711F58F
:1035F0000E9401119D81992399F08A7A91E009F442
:1036000090E090938403811109C089E20E94C9204F
:103610000E94901180E0DF91CF91089585E3F6CF6D
:1036200080918403811104C089E20E94D120F0CFEF
:1036300085E3FBCF81E0EFCFCF93DF93EC01FB017C
:103640008581882309F4D2C09E0130572332310589
:1036500008F0B2C00E9429129093A8038093A70398
:10366000FE01E150F047E232F10520F4EA53F54D56
:103670000C94FF298091A70381608093A70393C0D6
:103680008091A80388608093A8038DC08091A703D0
:103690008260F3CF8091A7038460EFCF8091A7036E
:1036A0008860EBCF8091A8038160EDCF8091A80363
:1036B0008260E9CF8091A7038061DFCF8091A7036B
:1036C0008062DBCF8091A7038064D7CF0E94850CF6
:1036D0008091A7038068D1CF8091A7038C60CDCF64
:1036E0008091A8038360CFCF8091A7038E7FC5CF41
:1036F0008091A803877FC7CF8091A7038D7FBDCF1F
:103700008091A7038B7FB9CF8091A703877FB5CF27
:103710008091A8038E7FB7CF8091A8038D7FB3CF10
:103720008091A7038F7EA9CF8091A7038F7DA5CF1E
:103730008091A7038F7BA1CF0E94850C8091A70366
:103740008F779BCF8091A703837F97CF8091A8032A
:103750008C7F99CF8091A70382FB992790F921E074
:10376000922790FB82F990FB83F987CF8091A80381
:10377000982F909591708E7F892B90FB81F983CF44
:103780009091A703892F8F7B96FF806476CF0E944C
:10379000850C9091A703892F97FB87F980586DCFEF
:1037A00081E00E94AF128091A7039091A8030E942C
:1037B0002E120E94850C80E0DF91CF91089580E069
:1037C000F0CF9091A703892F8F7E94FF806155CF12
:1037D0009091A703892F8E7F90FF81604ECF9091AB
:1037E000A803892F877F93FF88604DCF81E0E4CFC6
:1037F000282F35EB2303C001112497FF04C0805804
:103800009109892F089580589F4FFBCF80918B039A
:1038100080FF0DC06091070170E0660F771F603870
:10382000710570F56115710569F1862F089581FFA5
:1038300007C06091070184E0689FB0011124EFCFB9
:103840006091070182FD0AC080918A038823A9F054
:103850002091060160910701821710F088E0ECCFFB
:10386000869FC001112433E0880F991F3A95E1F734
:10387000622F70E00E94EB29D2CF68E070E0D5CFD4
:103880008FE7089581E0089580918B0380FF0CC03D
:103890006091030170E07595679575956795611561
:1038A000710549F1862F089581FF06C060910301DB
:1038B00070E075956795F3CF6091030182FD0BC0B1
:1038C000909189039923A1F06091020180910301F5
:1038D000961738F0682F70E06038710500F38FE7B5
:1038E0000895899FC001112470E00E94EB29F4CF54
:1038F00061E070E0D7CF81E008958D3C31F40E9403
:10390000061C819580938F0308958E3C19F40E94C4
:10391000061CF8CF8F3C31F40E94061C81958093E1
:103920008E030895803D19F40E94061CF8CF893D4E
:1039300029F40E94441C8093900308958A3D21F449
:103940000E94441C8195F7CF8B3D31F40E94441CAA
:1039500081958093910308958C3D19F40E94441C35
:10396000F8CF9FE2980F983070F4815D990B21E0B9
:1039700030E001C0220F8A95EAF780918D03822BF7
:1039800080938D0308958D3D31F480918B03816088
:1039900080938B0308958E3D21F480918B03826088
:1039A000F7CF8F3DB9F780918B038460F1CF4091C1
:1039B0008E038D3C59F480918F0387FF0DC01092C8
:1039C0008F0341110BC010928A0308C08E3C81F412
:1039D00080918F0318169CF3442381F0809190030B
:1039E00090919103892B09F05AC010928903089590
:1039F0008F3C49F447FFF0CF10928E0380918F03E4
:103A00008111ECCFE0CF803D19F41416ACF3E4CF74
:103A100090919003893D29F41916F4F610929003C1
:103A2000DBCF8A3D19F497FFD7CFF8CF9091910360
:103A30008B3D29F497FFD0CF10929103CDCF8C3DD1
:103A400019F41916CCF3C8CF9FE2980F983090F470
:103A5000815D990B21E030E0B90102C0660F771F4C
:103A60008A95E2F7CB01809590918D03892380930D
:103A70008D03B2CF8D3D31F480918B038E7F809387
:103A80008B03AACF8E3D21F480918B038D7FF7CFDE
:103A90008F3D09F0A1CF80918B038B7FF0CF0895EC
:103AA00080917A0383FF96C084EA9AE09F938F9374
:103AB0000E942C0780918D031F928F938FE99AE0CB
:103AC0009F938F930E942C078DE99AE09F938F9389
:103AD0000E942C0780918E03282F082E000C330B98
:103AE0003F938F938AE99AE09F938F930E942C07CC
:103AF00088E99AE09F938F930E942C0780918F030F
:103B0000282F082E000C330B3F938F9385E99AE002
:103B10009F938F930E942C0783E99AE09F938F9342
:103B20000E942C0780919003282F082E000C330B45
:103B30003F938F9380E99AE09F938F930E942C0785
:103B40008EE89AE09F938F930E942C0780919103B7
:103B5000282F082E000C330B3F938F938BE89AE0AD
:103B60009F938F930E942C0788E89AE09F938F93EE
:103B70000E942C078DB79EB780960FB6F8949EBF13
:103B80000FBE8DBF80918A031F928F9385E89AE0C4
:103B90009F938F930E942C0783E89AE09F938F93C3
:103BA0000E942C0780918B031F928F9380E89AE0EC
:103BB0009F938F930E942C078DE79AE09F938F939A
:103BC0000E942C078DB79EB70C960FB6F8949EBF37
:103BD0000FBE8DBF0E9403229C0190918E038091A5
:103BE0008F03982B21F030938803209387039091C3
:103BF000900380919103982B21F0309386032093BA
:103C000085038CE893E00E942120089586E0ECE88B
:103C1000F3E0DF011D928A95E9F710928A03109272
:103C2000890310928B030895FC01828181110EC0DB
:103C3000838181110BC08481811108C091E085814D
:103C4000811101C090E0892F8170089581E0FCCF3F
:103C5000A6E0B0E0EEE2FEE10C94142A86E0ECE887
:103C6000F3E0DE01119601900D928A95E1F7109232
:103C70008E0310928F0310929003109291038B8108
:103C80009C81892B89F080918703909188030E9401
:103C90001B22AC0190918A039923C9F180910801FC
:103CA0008417150608F440C08D819E81892B91F000
:103CB00080918503909186030E941B22AC01909114
:103CC0008903992309F46AC08091040184171506B9
:103CD00008F472C0BE016F5F7F4F8CE893E00E94D2
:103CE000E420811105C08CE893E00E94141E81112C
:103CF0000E94501D86E0FE013196ACE8B3E00190D1
:103D00000D928A95E1F72696E3E00C94302A2091F3
:103D100009018AE0289F900111242417350720F615
:103D20009F5F90938A0302C09F3FD1F71B811123AD
:103D300059F00E94061C9FEF11160CF491E0899F28
:103D4000802D112480938E031C81112359F00E9431
:103D5000061C9FEF11160CF491E0899F802D112411
:103D600080938F0380918E03882309F49DCF109157
:103D70008F03112309F498CF0E94F81B882351F078
:103D800080938E03812F0E94F81B882329F0809353
:103D90008F038ACF81E0F4CF81E0F9CF2091050134
:103DA0008AE0289F900111242417350708F092CF4C
:103DB0009F5F9093890302C09F3FD1F71D8111231C
:103DC00059F00E94441C9FEF11160CF491E0899F5A
:103DD000802D1124809390031E81112359F00E949D
:103DE000441C9FEF11160CF491E0899F802D112443
:103DF0008093910380919003882309F46BCF1091F5
:103E00009103112309F466CF0E94F81B882351F017
:103E100080939003812F0E94F81B882329F08093C0
:103E2000910358CF81E0F4CF81E0F9CF0F931F9336
:103E3000CF93DF93C42FD22FFC0185818823C9F053
:103E4000409394030E9403229093930380939203E0
:103E500080E28C0F883040F4C77081E001C0880F89
:103E6000CA95EAF70E94320ADF91CF911F910F9114
:103E7000089510919403141332C08091920390918D
:103E800093030E941B22883C910548F5C0E2CD0FA8
:103E90001D17B9F080E2810F883040F4177081E07F
:103EA00001C0880F1A95EAF70E94390AC83048F411
:103EB00081E09D2F977001C0880F9A95EAF70E94C4
:103EC000320A802F0E94290AC83070F6D77081E02C
:103ED00001C0880FDA95EAF70E94390AC5CF80E25F
:103EE0008C0F883008F6C77081E001C0880FCA9532
:103EF000EAF7F2CF0F93DB0188519C478730910599
:103F0000A0F5FC01E851F54D0C94FF2906E221EEE5
:103F100041EE6AE17CE7CD010E94161F80E00F911F
:103F2000089507E225EE45EE6BE17CE7F4CF06E26B
:103F300021EE40EE68E17CE7EECF07E225EE44EEAD
:103F400069E17CE7E8CF06E221EE42EE6CE17CE736
:103F5000E2CF07E225EE46EE6DE17CE7DCCF08E23A
:103F600021E045EE6EE17CE7D6CF15968C91882353
:103F700019F010929403D3CF81E0D1CF90939A039C
:103F8000809399030895E0919903F0919A033097F3
:103F900029F00190F081E02D0995089580E00895C1
:103FA0000E94C31F0895EF92FF920F931F93CF9328
:103FB000DF93EC01E0919903F0919A033097E1F1DE
:103FC0000280F381E02D099580917A0382FF34C04D
:103FD00080FF0DC088811F928F938FEC9AE09F9392
:103FE0008F930E942C070F900F900F900F907E01DF
:103FF00086E0E80EF11C09EC1AE080917A0380FF5C
:104000000BC08A811F928F931F930F930E942C07DE
:104010000F900F900F900F902196CE15DF0569F746
:1040200080917A0380FF08C087EC9AE09F938F937A
:104030000E942C070F900F90CDB7DEB7E6E00C94EE
:104040002D2AE0919903F0919A03309739F022E0FC
:10405000DC012C930680F781E02D09950895A3E0FB
:10406000B0E0E5E3F0E20C94152A2091970330913B
:10407000980328173907A1F090939803809397032A
:10408000E0919903F0919A03309751F023E029834E
:104090009B838A830084F185E02DCE0101960995EA
:1040A0002396E2E00C94312AA3E0B0E0EAE5F0E2E6
:1040B0000C94152A209195033091960328173907FF
:1040C000A1F09093960380939503E0919903F0916A
:1040D0009A03309751F024E029839B838A830084DC
:1040E000F185E02DCE01019609952396E2E00C942E
:1040F000312A40910001509101019A012E5F3F4FFA
:10410000485F5F4F80E02417350709F40895F901EF
:1041100091919F019923B9F38F5FF5CF882371F0B7
:104120002091000130910101F9013296285F3F4F43
:104130009191981729F0E217F307D1F780E00895DD
:1041400081E008959C01FC0132969FEF80E041914F
:10415000461751F09F3F19F4411101C0982F8F5F0E
:104160008630A9F79F3F09F40895290F311D97FD67
:104170003A95F90162830895FC01329608962191DF
:10418000261303C0DF0111971C92E817F907B9F74E
:104190000895682F80910001909101010E94A22052
:1041A0000895682F80910001909101010E94BC2028
:1041B0000895E0910001F0910101329686E0DF015F
:1041C0001D928A95E9F70895DC01FB0111969C91F7
:1041D00011978181981322C012968C91129788238F
:1041E00019F0928189131AC013968C911397882322
:1041F00019F09381891312C015968C911597882315
:1042000019F0958189130AC014969C91992321F085
:1042100081E02481291303C080E001C081E0817026
:10422000089508950E941121089581110EC081E022
:1042300080930D0160910A0170910B0180910C0136
:1042400090910D010E941221089582E0F1CF83E048
:1042500080930D0160910A0170910B0180910C0116
:1042600090910D010E94122108950E941521089538
:1042700081E080930D0160910A0170910B018091A2
:104280000C0190910D010E94122108950E94382185
:10429000089591E0811101C090E090930C0160912C
:1042A0000A0170910B0180910C0190910D010E9407
:1042B0001221089580910C01089580930B01609163
:1042C0000A0170910B0180910C0190910D010E94E7
:1042D0001221089580910B01089580930A01609145
:1042E0000A0170910B0180910C0190910D010E94C7
:1042F0001221089580910A010895089508950E9459
:104300007E210895089508950E947D210895CF93F8
:104310000E9482210E9400170E948321C0E08C2FFE
:104320000E94E415892B31F4CF5FC530C1F780E0DE
:10433000CF91089581E0FCCF85B7806885BF85B7B0
:10434000806885BF08951F921FB61F9211248F9316
:104350009F93AF93BF9380919B03811113C0809172
:10436000BD039091BE03A091BF03B091C0034196DD
:10437000A11DB11D8093BD039093BE03A093BF0305
:10438000B093C003BF91AF919F918F911F901FBEBB
:104390001F9018958091C503843031F10E946908FF
:1043A00010929B0388E190E020E40FB6F894A89562
:1043B000809360000FBE2093600083B7817F84608C
:1043C00083BF83B7816083BF7894889583B78E7FDE
:1043D00083BF0FB6F894A8958091600088618093A0
:1043E0006000109260000FBE08950E94850C0E942C
:1043F0006E08089582E084BD93E095BD9AEF97BD65
:1044000080936E0008952FB7F8948091BD0390912A
:10441000BE03A091BF03B091C0032FBF08952FB773
:10442000F8946091BD037091BE038091BF03909199
:10443000C0032FBF08959C014FB7F8948091BD032E
:104440009091BE03A091BF03B091C0034FBF821BE8
:10445000930B089578941F921FB61F9211248F9387
:104460009F93AF93BF938091BD039091BE03A091A2
:10447000BF03B091C0030196A11DB11D8093BD0380
:104480009093BE03A093BF03B093C003BF91AF91BD
:104490009F918F911F901FBE1F90189581E0809370
:1044A000E00080E28093D8001092C9008FE19EE482
:1044B0000197F1F700C0000087E090EBDC018093EA
:1044C000CE039093CF03A093D003B093D10388E1A0
:1044D0009CE00FB6F894A895809360000FBE90936F
:1044E0006000FFCF88E19CE00FB6F894A895809318
:1044F00060000FBE90936000FFCF08959B01BA014A
:104500009091C5039430E9F48F708093E9009FEF98
:104510008091E800915085FD06C085ED8A95F1F700
:1045200000009111F5CF8091E80085FF0AC050E0AE
:1045300040E0C9010E9459258091E8008E77809360
:10454000E800089543E050E0BC0182E00E947E2232
:10455000089546E050E0BC0182E00E947E2208956A
:10456000CF93DF93EC010E945A2148E050E0BE0156
:1045700081E00E947E2288E0FE01AFE9B3E0019075
:104580000D928A95E1F7DF91CF91089508958EE01D
:104590009BE09F938F930E942C078091C4030F9000
:1045A0000F90811109C00E94E9260E944627809140
:1045B000E20084608093E20008958AE09BE09F938C
:1045C0008F930E942C071092C4030F900F900895B0
:1045D00086E09BE09F938F930E942C070E943821D6
:1045E00081E00E9449210F900F90089582E09BE0A6
:1045F0009F938F930E942C076091C10381E061110A
:1046000001C080E00E9427210F900F9008958EEF47
:104610009AE09F938F930E942C079091C50381E0AD
:10462000943009F080E06091C1030E9435210F9021
:104630000F90089520919D032F5F822F62E30E94C7
:10464000DF29992319F020939D03089510929D036B
:1046500080919E038823F1F08091C5038430C1F4DA
:104660009091E9009F702091EC00822F817020FDD5
:1046700080E8892B93E09093E9009091EB0090FF04
:1046800004C09091EE0097FD08C08F708093E90000
:1046900010929E0308951092F1009091E80095FD0C
:1046A000FACF9091E80090FFF0CF9091E8009E77CC
:1046B0009093E800EACF42E061EC81E00E94652639
:1046C00042E261EC82E00E94652642E261EC83E016
:1046D0000E9465269091C50381E0943009F080E046
:1046E0006091C1030E94152108958091C703833012
:1046F00009F461C030F48130D1F1823009F49EC0F8
:1047000008958A3009F48AC08B3009F46FC089306B
:1047100009F050C08091C603813209F04BC08091EE
:10472000CA039091CB03029708F044C08091E8003F
:10473000877F8093E8008091E80082FF37C09091E6
:10474000F3008091F200029731F48091F100813002
:1047500011F0863021F48091F1000E945D2180915A
:10476000E8008B778093E8000E94992623C080910F
:10477000C603813AF9F48091E800877F8093E800CE
:104780008091CA039091CB03892B61F468E08FE993
:1047900093E070E00E94A8258091E8008B778093D9
:1047A000E800089560E090E080E0F3CF8091C503D9
:1047B0008111C1CF08958091C603813AD9F78091C4
:1047C000CA039091CB03892BA9F78091E800877FDA
:1047D0008093E8008091E80080FFFCCF0E945A217E
:1047E0008093F1008091E8008E77BCCF8091C60362
:1047F000813201F78091CA039091CB03892BD1F6C6
:104800008091E800877F8093E8000E94992680913C
:10481000C8030E9449210E94850C08958091C60317
:10482000813241F68091E800877F8093E8000E9402
:1048300099268091C9030E946D2108958091C60335
:10484000813A09F0B7CF8091E800877F8093E80034
:104850008091E80080FFFCCF0E947A21C1CF9FB7F2
:10486000F89410929E039FBF9091C503943009F075
:1048700048C02091E9002F703091EC00932F917087
:1048800030FD90E8922B23E02093E9002091EB008B
:1048900020FF34C02091EE0027FF30C020919C0300
:1048A000222321F02091E80025FF28C010929C03CC
:1048B00026E03091E80035FF14C08093F10080912C
:1048C000E80085FD27C08091E80080FFFCCF809143
:1048D000E8008E778093E8009F709093E90080E075
:1048E00008953091C503343049F43091EB0035FD23
:1048F00005C0215041F481E080939C039F70909308
:10490000E9008FEF0895EFE9FFE03197F1F700C07C
:104910000000CFCF8FB7F89421E020939E038FBF84
:10492000DBCF84B7877F84BF0FB6F894A8958091BA
:104930006000886180936000109260000FBE80E884
:1049400090E00FB6F89480936100909361000FBEE1
:104950000E94462108950E94E9260E944627E2EE21
:10496000F0E080818460808378940E94C429089557
:104970008EE091E00E94BE1F08958091C5038530AE
:1049800091F480917A0380FF08C088EE9AE09F93AB
:104990008F930E942C070F900F908091C503853054
:1049A00019F00E94F52108950E94CA210E948721D2
:1049B000882399F38091C303882379F30E944325C8
:1049C0000E94850CEACF08959A014091CC03509142
:1049D000CD030E94EC240895492F552743305105FB
:1049E00021F168F44130510509F443C042305105CA
:1049F00009F444C090E080E050E040E026C041323D
:104A0000510551F142325105A9F76330710590F714
:104A1000FB01EE0FFF1FE153FD4F408151816453B5
:104A20007D4FFB01808190E010C099278130910576
:104A300081F0009729F00297E9F6E2E1FBE002C07D
:104A4000ECE5FBE0849190E0AF01F90151834083F4
:104A50000895E0E3FBE0F6CF6330710558F6660F8A
:104A6000771FFB01EB52FD4F4081518189E090E0BF
:104A7000ECCF82E190E044EB5BE0E7CF84E590E0AF
:104A800040E65BE0E2CF80E189BD82E189BD09B407
:104A900000FEFDCF8091D8008F7D8093D80080915B
:104AA000E00082608093E0008091E00081FDFCCF17
:104AB0000895AF92BF92CF92DF92FF920F931F9310
:104AC000CF93DF936C01EB018A010E94B826F82E88
:104AD000811123C00115110539F0F8018081918100
:104AE000C81BD90BC80ED91EB12CA12C2097A9F038
:104AF0008091E80085FD22C08091E8008E77809348
:104B0000E80001151105A1F0F80180819181A80E3E
:104B1000B91EB182A08285E0F82E8F2DDF91CF9152
:104B20001F910F91FF90DF90CF90BF90AF900895AD
:104B30000E94B8268823D1F2F82EEFCFF60181919A
:104B40006F018093F1002197FFEFAF1ABF0ACECF1C
:104B5000FC018091CC039091CD0386179707A0F0BC
:104B60006115710529F49091E8009E779093E80013
:104B700090E06115710551F4911108C08091E80031
:104B800082FF34C080E00895BC01F2CF8091C5035C
:104B90008823C1F18530C1F18091E80083FD30C0E8
:104BA0008091E80082FDEACF8091E80080FFE1CFAC
:104BB0008091F3002091F200382F6115710519F0F2
:104BC0002830310558F091E02830310509F090E0A7
:104BD0002091E8002E772093E800CBCF819180933D
:104BE000F100615071092F5F3F4FE7CF8091C503FE
:104BF000882341F0853041F08091E80083FFBECFEB
:104C000081E0089582E0089583E00895FC01809199
:104C1000CC039091CD0386179707A0F0611571051D
:104C200029F48091E8008E778093E80090E0611588
:104C3000710551F4911108C08091E80082FF35C0E0
:104C400080E00895BC01F2CF8091C5038823C9F1AB
:104C50008530C9F18091E80083FD31C08091E80082
:104C600082FDEACF8091E80080FFE1CF8091F300E0
:104C70002091F200382F6115710519F028303105A7
:104C800058F091E02830310509F090E08091E8007B
:104C90008E778093E800CBCF84918093F10031969A
:104CA000615071092F5F3F4FE6CF8091C503882384
:104CB00041F0853041F08091E80083FFBDCF81E075
:104CC000089582E0089583E00895982F973028F0A2
:104CD0008F708093E90081E008959093E900242F7C
:104CE000762F50E0981731F07091EC002091ED0094
:104CF0005091F00021FD02C09F5FE8CF3091EB00A2
:104D00003E7F3093EB003091ED003D7F3093ED001E
:104D10003091EB0031603093EB007093EC00209306
:104D2000ED005093F0002091EE0027FDE5CF80E0EC
:104D300008958091C60387FF13C08091E80082FF29
:104D400006C08091E8008B778093E80004C08091D2
:104D5000C5038111F2CF08958091C5038823D9F34B
:104D60008091E80080FFF8CF8091E8008E77ECCF4B
:104D70002091E4003091E50095E6A9012091EC0036
:104D8000822F817020FF06C08091E80080FF06C05E
:104D900080E008952091E80022FD1AC08091C503AB
:104DA000882389F0853089F08091EB0085FD0FC064
:104DB0002091E4003091E50042175307F9F2915039
:104DC000E1F684E0089582E0089583E0089581E0AB
:104DD00008950E9458270E946027E0EEF0E080814D
:104DE00081608083E8EDF0E080818F77808319BC5B
:104DF000A7EDB0E08C918E7F8C9380818F7E808335
:104E00001092C40308950F931F93CF93DF930E94D2
:104E100058270E946027C8EDD0E088818F7788836B
:104E200088818068888388818F7D888319BC1092EF
:104E3000C5031092C1031092C3031092C20300EE87
:104E400010E0F80180818B7F808388818160888376
:104E500042E060E080E00E946526E1EEF0E08081C3
:104E60008E7F8083E2EEF0E08081816080838081AC
:104E700088608083F80180818E7F80838881806153
:104E80008883DF91CF911F910F910895E8EDF0E0B5
:104E900080818F7E8083E7EDF0E080818160808378
:104EA00084E082BF81E08093C4030E9403270895B9
:104EB000E8EDF0E080818E7F80831092E20008951B
:104EC0001092DA001092E10008951F920F920FB62F
:104ED0000F9211242F933F934F935F936F937F9380
:104EE0008F939F93AF93BF93EF93FF938091E100D4
:104EF00082FF0BC08091E20082FF07C08091E10039
:104F00008B7F8093E1000E941A238091DA0080FF5A
:104F100019C08091D80080FF15C08091DA008E7F83
:104F20008093DA008091D90080FF96C080E189BD2E
:104F300082E189BD09B400FEFDCF81E08093C50305
:104F40000E94C7228091E10080FF19C08091E20099
:104F500080FF15C08091E2008E7F8093E2008091F7
:104F6000E20080618093E2008091D80080628093AB
:104F7000D80019BC85E08093C5030E94F622809179
:104F8000E10084FF2BC08091E20084FF27C080E114
:104F900089BD82E189BD89B5982F917080FFFBCFD3
:104FA0008091D8008F7D8093D8008091E1008F7E22
:104FB0008093E1008091E2008F7E8093E2008091F7
:104FC000E20081608093E2008091C103882309F4AC
:104FD00049C084E08093C5030E9407238091E100CB
:104FE00083FF29C08091E20083FF25C08091E1000A
:104FF000877F8093E10082E08093C5031092C10314
:105000008091E1008E7F8093E1008091E2008E7FAD
:105010008093E2008091E20080618093E20042E0B0
:1050200060E080E00E9465268091F00088608093B7
:10503000F0000E94E822FF91EF91BF91AF919F9104
:105040008F917F916F915F914F913F912F910F9031
:105050000FBE0F901F90189519BC1092C5030E94A7
:10506000DD2270CF8091E30087FD93E09093C5032C
:10507000B3CF1F920F920FB60F9211242F933F932D
:105080004F935F936F937F938F939F93AF93BF9350
:10509000CF93DF93EF93FF93D091E900DF7080917E
:1050A000EC00C82FC17080FDC0E81092E90080912B
:1050B000F000877F8093F00078940E947D28109202
:1050C000E9008091F00088608093F000CD2BCF70D4
:1050D000C093E900FF91EF91DF91CF91BF91AF9124
:1050E0009F918F917F916F915F914F913F912F9100
:1050F0000F900FBE0F901F901895AAE2B0E0E3E862
:10510000F8E20C94142A86EC93E02091F100FC0163
:105110002193CF01F3E08E3C9F07B9F70E947523DE
:105120008091E80083FF1EC18091C6039091C70360
:105130009A3008F017C1E92FF0E0E151F54D0C94D9
:10514000FF29803899F0823809F00CC18091CA0398
:105150008F70873008F006C18093E9008091EB00E2
:1051600085FB882780F91092E90006C08091C20370
:105170009091C303911182609091E800977F909382
:10518000E8008093F1001092F1008091E8008E77A2
:10519000E5C0882309F4D3C0823009F0E3C08091D0
:1051A000C8038111D6C08091CA038F702FEF280FDA
:1051B000263008F0D7C08093E9002091EB0020FF53
:1051C000C8C0933031F48091EB0080628093EB0093
:1051D000C0C09091EB0090619093EB0021E030E033
:1051E00001C0220F8A95EAF72093EA001092EA00A4
:1051F0008091EB008860EACF8111B4C01091C803A0
:105200001F778091E3008078812B8093E300809169
:10521000E800877F8093E8000E9499268091E8004B
:1052200080FFFCCF8091E30080688093E30082E000
:10523000111183E08093C50395C08058823008F037
:1052400091C08091C8039091C9038C3D23E09207DF
:10525000A1F583E08A838AE289834FB7F894DE015F
:10526000139620E03EE051E2E32FF0E05093570028
:10527000E49120FF03C0E295EF703F5FEF708E2F47
:1052800090E0EA30C0F0C7968D939D932F5F243154
:1052900059F74FBF8091E800877F8093E8006AE26A
:1052A00070E0CE0101960E94A8258091E8008B77DE
:1052B0008093E80057C0C096E7CF6091CA03709111
:1052C000CB03AE014F5F5F4F0E94E424BC01892BEA
:1052D00009F448C09091E800977F9093E800898195
:1052E0009A810E940626E1CF8038E1F58091E8009E
:1052F000877F8093E8008091C1038093F10045CFC0
:10530000811130C09091C803923060F58091E8001F
:10531000877F8093E8009093C1030E949926809133
:10532000C103882311F084E005C08091E30087FD6C
:10533000FACF81E08093C5030E945B2313C0809164
:10534000C803813079F481E0933009F080E08093E4
:10535000C3031092E9008091E800877F8093E80002
:105360000E9499268091E80083FF0AC08091E8009E
:10537000877F8093E8008091EB0080628093EB0050
:10538000AA96E3E00C94302ACF938091C50388233A
:10539000A1F0C091E900CF709091EC00892F81704D
:1053A00090FD80E8C82B1092E9008091E80083FD11
:1053B0000E947D28CF70C093E900CF910895991B7A
:1053C00079E004C0991F961708F0961B881F7A95FC
:1053D000C9F78095089597FB072E16F4009407D01F
:1053E00077FD09D00E943C2A07FC05D03EF4909539
:1053F00081959F4F0895709561957F4F0895EE0FA9
:10540000FF1F0590F491E02D09942F923F924F9247
:105410005F926F927F928F929F92AF92BF92CF9244
:10542000DF92EF92FF920F931F93CF93DF93CDB74D
:10543000DEB7CA1BDB0B0FB6F894DEBF0FBECDBFC5
:1054400009942A88398848885F846E847D848C8496
:105450009B84AA84B984C884DF80EE80FD800C819F
:105460001B81AA81B981CE0FD11D0FB6F894DEBF82
:105470000FBECDBFED010895AA1BBB1B51E107C0B4
:10548000AA1FBB1FA617B70710F0A61BB70B881FD4
:10549000991F5A95A9F780959095BC01CD01089563
:1054A000FB01DC0104C08D910190801921F4415071
:1054B0005040C8F7881B990B0895FB01DC0102C01E
:1054C00001900D9241505040D8F70895F999FECFC0
:1054D00092BD81BDF89A992780B50895A8E1B0E002
:1054E00042E050E00C94AA2ADC01A40FB51F415001
:1054F000504048F0CB01840F951F2E910E94852AC1
:1055000041505040D0F70895262FF999FECF92BD13
:1055100081BDF89A019700B4021639F01FBA20BD78
:105520000FB6F894FA9AF99A0FBE08950396272FAA
:105530000E94852A0E94842A252F0E94852A242FD2
:105540000C94852A0196272F0E94852A0C94842A80
:10555000DC01CB01FC01F999FECF06C0F2BDE1BD33
:10556000F89A319600B40D9241505040B8F7089522
:10557000F894FFCF810A810AD10AD10A360B520B67
:10558000B00AB00A570BC80BD70BD70B741BE81B1C
:105590007C1B461B4A1B801B4E1B841B901B5A1BEB
:1055A000E11B5E1B941B621B981BC01B661B9C1B94
:1055B000C71B6C1BA21BAA1B521B881B561B8C1BD8
:1055C000701BA61BB61BD01BDF1B401B781BEF1BE1
:1055D000971F9D1F861F911FA31FA91FAF1FA128E3
:1055E000C928B229C928B229FC281D29B229742941
:0255F000802910
:1055F2005C03280850011E0A1401000001006A2100
:10560200B0227D22A922A222E200E900EA00B5002E
:10561200B600B700CD008301CC008A01920194014B
:105622002102230224022502260227022A02B300B3
:10563200B4006F0070009F01CB019F02A002818223
:1056420083E200E900EA00B500B600B700CD0083AE
:1056520001CC008A01920194012102230224022535
:1056620002260227022A02B300B4006F0070009FD4
:1056720001CB019F02A002818283F0F1F4F5F6F7DB
:1056820067663696949392919030C69534353F3F33
:105692003F006D6B5F64656C6179006D6B5F696E75
:1056A20074657276616C006D6B5F6D61785F7370AB
:1056B200656564006D6B5F74696D655F746F5F6DC6
:1056C2006178006D6B5F776865656C5F6D61785FAF
:1056D2007370656564006D6B5F776865656C5F7498
:1056E200696D655F746F5F6D6178000A092D2056E0
:1056F200657273696F6E202D0A5649443A203078DC
:10570200373237322822526F6D696E526F6E696E70
:105712002043616E64794B65797322292050494494
:105722003A2030784630334228224B6174616E61F0
:10573200363020726576322229205645523A203080
:1057420078303030310A4255494C443A2020284AB8
:10575200616E2032332032303235290A4F5054499B
:105762004F4E533A204C554641204D4F5553454BD1
:1057720045592045585452414B455920434F4E53A9
:105782004F4C4520434F4D4D414E44203430393625
:105792000A4743433A20382E332E30204156522DA9
:1057A2004C4942433A20322E302E30204156525F2D
:1057B200415243483A20617672350A00447B1556BD
:0C57C2000CDB0BC60B720B8B0BA40B0056
:00000001FF
